{
  "contractName": "DRNKgovernance",
  "abi": [
    {
      "inputs": [],
      "stateMutability": "nonpayable",
      "type": "constructor"
    },
    {
      "anonymous": false,
      "inputs": [
        {
          "indexed": true,
          "internalType": "address",
          "name": "owner",
          "type": "address"
        },
        {
          "indexed": true,
          "internalType": "address",
          "name": "spender",
          "type": "address"
        },
        {
          "indexed": false,
          "internalType": "uint256",
          "name": "value",
          "type": "uint256"
        }
      ],
      "name": "Approval",
      "type": "event"
    },
    {
      "anonymous": false,
      "inputs": [
        {
          "indexed": true,
          "internalType": "address",
          "name": "previousOwner",
          "type": "address"
        },
        {
          "indexed": true,
          "internalType": "address",
          "name": "newOwner",
          "type": "address"
        }
      ],
      "name": "OwnershipTransferred",
      "type": "event"
    },
    {
      "anonymous": false,
      "inputs": [
        {
          "indexed": true,
          "internalType": "address",
          "name": "from",
          "type": "address"
        },
        {
          "indexed": true,
          "internalType": "address",
          "name": "to",
          "type": "address"
        },
        {
          "indexed": false,
          "internalType": "uint256",
          "name": "value",
          "type": "uint256"
        }
      ],
      "name": "Transfer",
      "type": "event"
    },
    {
      "inputs": [],
      "name": "_admin",
      "outputs": [
        {
          "internalType": "address",
          "name": "",
          "type": "address"
        }
      ],
      "stateMutability": "view",
      "type": "function",
      "constant": true
    },
    {
      "inputs": [
        {
          "internalType": "address",
          "name": "owner",
          "type": "address"
        },
        {
          "internalType": "address",
          "name": "spender",
          "type": "address"
        }
      ],
      "name": "allowance",
      "outputs": [
        {
          "internalType": "uint256",
          "name": "",
          "type": "uint256"
        }
      ],
      "stateMutability": "view",
      "type": "function",
      "constant": true
    },
    {
      "inputs": [
        {
          "internalType": "address",
          "name": "spender",
          "type": "address"
        },
        {
          "internalType": "uint256",
          "name": "amount",
          "type": "uint256"
        }
      ],
      "name": "approve",
      "outputs": [
        {
          "internalType": "bool",
          "name": "",
          "type": "bool"
        }
      ],
      "stateMutability": "nonpayable",
      "type": "function"
    },
    {
      "inputs": [
        {
          "internalType": "address",
          "name": "account",
          "type": "address"
        }
      ],
      "name": "balanceOf",
      "outputs": [
        {
          "internalType": "uint256",
          "name": "",
          "type": "uint256"
        }
      ],
      "stateMutability": "view",
      "type": "function",
      "constant": true
    },
    {
      "inputs": [],
      "name": "decimals",
      "outputs": [
        {
          "internalType": "uint8",
          "name": "",
          "type": "uint8"
        }
      ],
      "stateMutability": "view",
      "type": "function",
      "constant": true
    },
    {
      "inputs": [
        {
          "internalType": "address",
          "name": "spender",
          "type": "address"
        },
        {
          "internalType": "uint256",
          "name": "subtractedValue",
          "type": "uint256"
        }
      ],
      "name": "decreaseAllowance",
      "outputs": [
        {
          "internalType": "bool",
          "name": "",
          "type": "bool"
        }
      ],
      "stateMutability": "nonpayable",
      "type": "function"
    },
    {
      "inputs": [
        {
          "internalType": "address",
          "name": "spender",
          "type": "address"
        },
        {
          "internalType": "uint256",
          "name": "addedValue",
          "type": "uint256"
        }
      ],
      "name": "increaseAllowance",
      "outputs": [
        {
          "internalType": "bool",
          "name": "",
          "type": "bool"
        }
      ],
      "stateMutability": "nonpayable",
      "type": "function"
    },
    {
      "inputs": [],
      "name": "name",
      "outputs": [
        {
          "internalType": "string",
          "name": "",
          "type": "string"
        }
      ],
      "stateMutability": "view",
      "type": "function",
      "constant": true
    },
    {
      "inputs": [],
      "name": "owner",
      "outputs": [
        {
          "internalType": "address",
          "name": "",
          "type": "address"
        }
      ],
      "stateMutability": "view",
      "type": "function",
      "constant": true
    },
    {
      "inputs": [],
      "name": "renounceOwnership",
      "outputs": [],
      "stateMutability": "nonpayable",
      "type": "function"
    },
    {
      "inputs": [],
      "name": "symbol",
      "outputs": [
        {
          "internalType": "string",
          "name": "",
          "type": "string"
        }
      ],
      "stateMutability": "view",
      "type": "function",
      "constant": true
    },
    {
      "inputs": [],
      "name": "totalSupply",
      "outputs": [
        {
          "internalType": "uint256",
          "name": "",
          "type": "uint256"
        }
      ],
      "stateMutability": "view",
      "type": "function",
      "constant": true
    },
    {
      "inputs": [
        {
          "internalType": "address",
          "name": "to",
          "type": "address"
        },
        {
          "internalType": "uint256",
          "name": "amount",
          "type": "uint256"
        }
      ],
      "name": "transfer",
      "outputs": [
        {
          "internalType": "bool",
          "name": "",
          "type": "bool"
        }
      ],
      "stateMutability": "nonpayable",
      "type": "function"
    },
    {
      "inputs": [
        {
          "internalType": "address",
          "name": "from",
          "type": "address"
        },
        {
          "internalType": "address",
          "name": "to",
          "type": "address"
        },
        {
          "internalType": "uint256",
          "name": "amount",
          "type": "uint256"
        }
      ],
      "name": "transferFrom",
      "outputs": [
        {
          "internalType": "bool",
          "name": "",
          "type": "bool"
        }
      ],
      "stateMutability": "nonpayable",
      "type": "function"
    },
    {
      "inputs": [
        {
          "internalType": "address",
          "name": "newOwner",
          "type": "address"
        }
      ],
      "name": "transferOwnership",
      "outputs": [],
      "stateMutability": "nonpayable",
      "type": "function"
    },
    {
      "inputs": [
        {
          "internalType": "address",
          "name": "to",
          "type": "address"
        },
        {
          "internalType": "uint256",
          "name": "amount",
          "type": "uint256"
        }
      ],
      "name": "mintDRNK",
      "outputs": [],
      "stateMutability": "nonpayable",
      "type": "function"
    },
    {
      "inputs": [
        {
          "internalType": "uint256",
          "name": "amount",
          "type": "uint256"
        }
      ],
      "name": "burnDRNK",
      "outputs": [],
      "stateMutability": "nonpayable",
      "type": "function"
    }
  ],
  "bytecode": "0x60806040523480156200001157600080fd5b506040518060400160405280601681526020017f4472756e6b20476f7665726e616e636520546f6b656e000000000000000000008152506040518060400160405280600481526020017f44524e4b0000000000000000000000000000000000000000000000000000000081525081600390805190602001906200009692919062000384565b508060049080519060200190620000af92919062000384565b505050620000d2620000c66200013360201b60201c565b6200013b60201b60201c565b620000ec33670de0b6b3a76400006200020160201b60201c565b33600660006101000a81548173ffffffffffffffffffffffffffffffffffffffff021916908373ffffffffffffffffffffffffffffffffffffffff160217905550620005d2565b600033905090565b6000600560009054906101000a900473ffffffffffffffffffffffffffffffffffffffff16905081600560006101000a81548173ffffffffffffffffffffffffffffffffffffffff021916908373ffffffffffffffffffffffffffffffffffffffff1602179055508173ffffffffffffffffffffffffffffffffffffffff168173ffffffffffffffffffffffffffffffffffffffff167f8be0079c531659141344cd1fd0a4f28419497f9722a3daafe3b4186f6b6457e060405160405180910390a35050565b600073ffffffffffffffffffffffffffffffffffffffff168273ffffffffffffffffffffffffffffffffffffffff16141562000274576040517f08c379a00000000000000000000000000000000000000000000000000000000081526004016200026b9062000487565b60405180910390fd5b62000288600083836200037a60201b60201c565b80600260008282546200029c9190620004d7565b92505081905550806000808473ffffffffffffffffffffffffffffffffffffffff1673ffffffffffffffffffffffffffffffffffffffff1681526020019081526020016000206000828254620002f39190620004d7565b925050819055508173ffffffffffffffffffffffffffffffffffffffff16600073ffffffffffffffffffffffffffffffffffffffff167fddf252ad1be2c89b69c2b068fc378daa952ba7f163c4a11628f55a4df523b3ef836040516200035a9190620004a9565b60405180910390a362000376600083836200037f60201b60201c565b5050565b505050565b505050565b82805462000392906200053e565b90600052602060002090601f016020900481019282620003b6576000855562000402565b82601f10620003d157805160ff191683800117855562000402565b8280016001018555821562000402579182015b8281111562000401578251825591602001919060010190620003e4565b5b50905062000411919062000415565b5090565b5b808211156200043057600081600090555060010162000416565b5090565b600062000443601f83620004c6565b91507f45524332303a206d696e7420746f20746865207a65726f2061646472657373006000830152602082019050919050565b620004818162000534565b82525050565b60006020820190508181036000830152620004a28162000434565b9050919050565b6000602082019050620004c0600083018462000476565b92915050565b600082825260208201905092915050565b6000620004e48262000534565b9150620004f18362000534565b9250827fffffffffffffffffffffffffffffffffffffffffffffffffffffffffffffffff0382111562000529576200052862000574565b5b828201905092915050565b6000819050919050565b600060028204905060018216806200055757607f821691505b602082108114156200056e576200056d620005a3565b5b50919050565b7f4e487b7100000000000000000000000000000000000000000000000000000000600052601160045260246000fd5b7f4e487b7100000000000000000000000000000000000000000000000000000000600052602260045260246000fd5b611c2980620005e26000396000f3fe608060405234801561001057600080fd5b506004361061010b5760003560e01c80634d731624116100a257806395d89b411161007157806395d89b41146102a8578063a457c2d7146102c6578063a9059cbb146102f6578063dd62ed3e14610326578063f2fde38b146103565761010b565b80634d7316241461023457806370a0823114610250578063715018a6146102805780638da5cb5b1461028a5761010b565b80631d992d22116100de5780631d992d221461019a57806323b872dd146101b6578063313ce567146101e657806339509351146102045761010b565b806301bc45c91461011057806306fdde031461012e578063095ea7b31461014c57806318160ddd1461017c575b600080fd5b610118610372565b604051610125919061178e565b60405180910390f35b610136610398565b60405161014391906117c4565b60405180910390f35b6101666004803603810190610161919061125e565b61042a565b60405161017391906117a9565b60405180910390f35b61018461044d565b6040516101919190611966565b60405180910390f35b6101b460048036038101906101af919061125e565b610457565b005b6101d060048036038101906101cb919061120f565b610465565b6040516101dd91906117a9565b60405180910390f35b6101ee610494565b6040516101fb9190611981565b60405180910390f35b61021e6004803603810190610219919061125e565b61049d565b60405161022b91906117a9565b60405180910390f35b61024e6004803603810190610249919061129a565b6104d4565b005b61026a600480360381019061026591906111aa565b6104f4565b6040516102779190611966565b60405180910390f35b61028861053c565b005b6102926105c4565b60405161029f919061178e565b60405180910390f35b6102b06105ee565b6040516102bd91906117c4565b60405180910390f35b6102e060048036038101906102db919061125e565b610680565b6040516102ed91906117a9565b60405180910390f35b610310600480360381019061030b919061125e565b6106f7565b60405161031d91906117a9565b60405180910390f35b610340600480360381019061033b91906111d3565b61071a565b60405161034d9190611966565b60405180910390f35b610370600480360381019061036b91906111aa565b6107a1565b005b600660009054906101000a900473ffffffffffffffffffffffffffffffffffffffff1681565b6060600380546103a790611b24565b80601f01602080910402602001604051908101604052809291908181526020018280546103d390611b24565b80156104205780601f106103f557610100808354040283529160200191610420565b820191906000526020600020905b81548152906001019060200180831161040357829003601f168201915b5050505050905090565b600080610435610899565b90506104428185856108a1565b600191505092915050565b6000600254905090565b6104618282610a6c565b5050565b600080610470610899565b905061047d858285610bcc565b610488858585610c58565b60019150509392505050565b60006012905090565b6000806104a8610899565b90506104c98185856104ba858961071a565b6104c491906119b8565b6108a1565b600191505092915050565b6104f133670de0b6b3a7640000836104ec9190611a0e565b610ed9565b50565b60008060008373ffffffffffffffffffffffffffffffffffffffff1673ffffffffffffffffffffffffffffffffffffffff168152602001908152602001600020549050919050565b610544610899565b73ffffffffffffffffffffffffffffffffffffffff166105626105c4565b73ffffffffffffffffffffffffffffffffffffffff16146105b8576040517f08c379a00000000000000000000000000000000000000000000000000000000081526004016105af906118a6565b60405180910390fd5b6105c260006110b0565b565b6000600560009054906101000a900473ffffffffffffffffffffffffffffffffffffffff16905090565b6060600480546105fd90611b24565b80601f016020809104026020016040519081016040528092919081815260200182805461062990611b24565b80156106765780601f1061064b57610100808354040283529160200191610676565b820191906000526020600020905b81548152906001019060200180831161065957829003601f168201915b5050505050905090565b60008061068b610899565b90506000610699828661071a565b9050838110156106de576040517f08c379a00000000000000000000000000000000000000000000000000000000081526004016106d590611926565b60405180910390fd5b6106eb82868684036108a1565b60019250505092915050565b600080610702610899565b905061070f818585610c58565b600191505092915050565b6000600160008473ffffffffffffffffffffffffffffffffffffffff1673ffffffffffffffffffffffffffffffffffffffff16815260200190815260200160002060008373ffffffffffffffffffffffffffffffffffffffff1673ffffffffffffffffffffffffffffffffffffffff16815260200190815260200160002054905092915050565b6107a9610899565b73ffffffffffffffffffffffffffffffffffffffff166107c76105c4565b73ffffffffffffffffffffffffffffffffffffffff161461081d576040517f08c379a0000000000000000000000000000000000000000000000000000000008152600401610814906118a6565b60405180910390fd5b600073ffffffffffffffffffffffffffffffffffffffff168173ffffffffffffffffffffffffffffffffffffffff16141561088d576040517f08c379a000000000000000000000000000000000000000000000000000000000815260040161088490611826565b60405180910390fd5b610896816110b0565b50565b600033905090565b600073ffffffffffffffffffffffffffffffffffffffff168373ffffffffffffffffffffffffffffffffffffffff161415610911576040517f08c379a000000000000000000000000000000000000000000000000000000000815260040161090890611906565b60405180910390fd5b600073ffffffffffffffffffffffffffffffffffffffff168273ffffffffffffffffffffffffffffffffffffffff161415610981576040517f08c379a000000000000000000000000000000000000000000000000000000000815260040161097890611846565b60405180910390fd5b80600160008573ffffffffffffffffffffffffffffffffffffffff1673ffffffffffffffffffffffffffffffffffffffff16815260200190815260200160002060008473ffffffffffffffffffffffffffffffffffffffff1673ffffffffffffffffffffffffffffffffffffffff168152602001908152602001600020819055508173ffffffffffffffffffffffffffffffffffffffff168373ffffffffffffffffffffffffffffffffffffffff167f8c5be1e5ebec7d5bd14f71427d1e84f3dd0314c0f7b2291e5b200ac8c7c3b92583604051610a5f9190611966565b60405180910390a3505050565b600073ffffffffffffffffffffffffffffffffffffffff168273ffffffffffffffffffffffffffffffffffffffff161415610adc576040517f08c379a0000000000000000000000000000000000000000000000000000000008152600401610ad390611946565b60405180910390fd5b610ae860008383611176565b8060026000828254610afa91906119b8565b92505081905550806000808473ffffffffffffffffffffffffffffffffffffffff1673ffffffffffffffffffffffffffffffffffffffff1681526020019081526020016000206000828254610b4f91906119b8565b925050819055508173ffffffffffffffffffffffffffffffffffffffff16600073ffffffffffffffffffffffffffffffffffffffff167fddf252ad1be2c89b69c2b068fc378daa952ba7f163c4a11628f55a4df523b3ef83604051610bb49190611966565b60405180910390a3610bc86000838361117b565b5050565b6000610bd8848461071a565b90507fffffffffffffffffffffffffffffffffffffffffffffffffffffffffffffffff8114610c525781811015610c44576040517f08c379a0000000000000000000000000000000000000000000000000000000008152600401610c3b90611866565b60405180910390fd5b610c5184848484036108a1565b5b50505050565b600073ffffffffffffffffffffffffffffffffffffffff168373ffffffffffffffffffffffffffffffffffffffff161415610cc8576040517f08c379a0000000000000000000000000000000000000000000000000000000008152600401610cbf906118e6565b60405180910390fd5b600073ffffffffffffffffffffffffffffffffffffffff168273ffffffffffffffffffffffffffffffffffffffff161415610d38576040517f08c379a0000000000000000000000000000000000000000000000000000000008152600401610d2f906117e6565b60405180910390fd5b610d43838383611176565b60008060008573ffffffffffffffffffffffffffffffffffffffff1673ffffffffffffffffffffffffffffffffffffffff16815260200190815260200160002054905081811015610dc9576040517f08c379a0000000000000000000000000000000000000000000000000000000008152600401610dc090611886565b60405180910390fd5b8181036000808673ffffffffffffffffffffffffffffffffffffffff1673ffffffffffffffffffffffffffffffffffffffff16815260200190815260200160002081905550816000808573ffffffffffffffffffffffffffffffffffffffff1673ffffffffffffffffffffffffffffffffffffffff1681526020019081526020016000206000828254610e5c91906119b8565b925050819055508273ffffffffffffffffffffffffffffffffffffffff168473ffffffffffffffffffffffffffffffffffffffff167fddf252ad1be2c89b69c2b068fc378daa952ba7f163c4a11628f55a4df523b3ef84604051610ec09190611966565b60405180910390a3610ed384848461117b565b50505050565b600073ffffffffffffffffffffffffffffffffffffffff168273ffffffffffffffffffffffffffffffffffffffff161415610f49576040517f08c379a0000000000000000000000000000000000000000000000000000000008152600401610f40906118c6565b60405180910390fd5b610f5582600083611176565b60008060008473ffffffffffffffffffffffffffffffffffffffff1673ffffffffffffffffffffffffffffffffffffffff16815260200190815260200160002054905081811015610fdb576040517f08c379a0000000000000000000000000000000000000000000000000000000008152600401610fd290611806565b60405180910390fd5b8181036000808573ffffffffffffffffffffffffffffffffffffffff1673ffffffffffffffffffffffffffffffffffffffff1681526020019081526020016000208190555081600260008282546110329190611a68565b92505081905550600073ffffffffffffffffffffffffffffffffffffffff168373ffffffffffffffffffffffffffffffffffffffff167fddf252ad1be2c89b69c2b068fc378daa952ba7f163c4a11628f55a4df523b3ef846040516110979190611966565b60405180910390a36110ab8360008461117b565b505050565b6000600560009054906101000a900473ffffffffffffffffffffffffffffffffffffffff16905081600560006101000a81548173ffffffffffffffffffffffffffffffffffffffff021916908373ffffffffffffffffffffffffffffffffffffffff1602179055508173ffffffffffffffffffffffffffffffffffffffff168173ffffffffffffffffffffffffffffffffffffffff167f8be0079c531659141344cd1fd0a4f28419497f9722a3daafe3b4186f6b6457e060405160405180910390a35050565b505050565b505050565b60008135905061118f81611bc5565b92915050565b6000813590506111a481611bdc565b92915050565b6000602082840312156111bc57600080fd5b60006111ca84828501611180565b91505092915050565b600080604083850312156111e657600080fd5b60006111f485828601611180565b925050602061120585828601611180565b9150509250929050565b60008060006060848603121561122457600080fd5b600061123286828701611180565b935050602061124386828701611180565b925050604061125486828701611195565b9150509250925092565b6000806040838503121561127157600080fd5b600061127f85828601611180565b925050602061129085828601611195565b9150509250929050565b6000602082840312156112ac57600080fd5b60006112ba84828501611195565b91505092915050565b6112cc81611a9c565b82525050565b6112db81611aae565b82525050565b60006112ec8261199c565b6112f681856119a7565b9350611306818560208601611af1565b61130f81611bb4565b840191505092915050565b60006113276023836119a7565b91507f45524332303a207472616e7366657220746f20746865207a65726f206164647260008301527f65737300000000000000000000000000000000000000000000000000000000006020830152604082019050919050565b600061138d6022836119a7565b91507f45524332303a206275726e20616d6f756e7420657863656564732062616c616e60008301527f63650000000000000000000000000000000000000000000000000000000000006020830152604082019050919050565b60006113f36026836119a7565b91507f4f776e61626c653a206e6577206f776e657220697320746865207a65726f206160008301527f64647265737300000000000000000000000000000000000000000000000000006020830152604082019050919050565b60006114596022836119a7565b91507f45524332303a20617070726f766520746f20746865207a65726f20616464726560008301527f73730000000000000000000000000000000000000000000000000000000000006020830152604082019050919050565b60006114bf601d836119a7565b91507f45524332303a20696e73756666696369656e7420616c6c6f77616e63650000006000830152602082019050919050565b60006114ff6026836119a7565b91507f45524332303a207472616e7366657220616d6f756e742065786365656473206260008301527f616c616e636500000000000000000000000000000000000000000000000000006020830152604082019050919050565b60006115656020836119a7565b91507f4f776e61626c653a2063616c6c6572206973206e6f7420746865206f776e65726000830152602082019050919050565b60006115a56021836119a7565b91507f45524332303a206275726e2066726f6d20746865207a65726f2061646472657360008301527f73000000000000000000000000000000000000000000000000000000000000006020830152604082019050919050565b600061160b6025836119a7565b91507f45524332303a207472616e736665722066726f6d20746865207a65726f20616460008301527f64726573730000000000000000000000000000000000000000000000000000006020830152604082019050919050565b60006116716024836119a7565b91507f45524332303a20617070726f76652066726f6d20746865207a65726f2061646460008301527f72657373000000000000000000000000000000000000000000000000000000006020830152604082019050919050565b60006116d76025836119a7565b91507f45524332303a2064656372656173656420616c6c6f77616e63652062656c6f7760008301527f207a65726f0000000000000000000000000000000000000000000000000000006020830152604082019050919050565b600061173d601f836119a7565b91507f45524332303a206d696e7420746f20746865207a65726f2061646472657373006000830152602082019050919050565b61177981611ada565b82525050565b61178881611ae4565b82525050565b60006020820190506117a360008301846112c3565b92915050565b60006020820190506117be60008301846112d2565b92915050565b600060208201905081810360008301526117de81846112e1565b905092915050565b600060208201905081810360008301526117ff8161131a565b9050919050565b6000602082019050818103600083015261181f81611380565b9050919050565b6000602082019050818103600083015261183f816113e6565b9050919050565b6000602082019050818103600083015261185f8161144c565b9050919050565b6000602082019050818103600083015261187f816114b2565b9050919050565b6000602082019050818103600083015261189f816114f2565b9050919050565b600060208201905081810360008301526118bf81611558565b9050919050565b600060208201905081810360008301526118df81611598565b9050919050565b600060208201905081810360008301526118ff816115fe565b9050919050565b6000602082019050818103600083015261191f81611664565b9050919050565b6000602082019050818103600083015261193f816116ca565b9050919050565b6000602082019050818103600083015261195f81611730565b9050919050565b600060208201905061197b6000830184611770565b92915050565b6000602082019050611996600083018461177f565b92915050565b600081519050919050565b600082825260208201905092915050565b60006119c382611ada565b91506119ce83611ada565b9250827fffffffffffffffffffffffffffffffffffffffffffffffffffffffffffffffff03821115611a0357611a02611b56565b5b828201905092915050565b6000611a1982611ada565b9150611a2483611ada565b9250817fffffffffffffffffffffffffffffffffffffffffffffffffffffffffffffffff0483118215151615611a5d57611a5c611b56565b5b828202905092915050565b6000611a7382611ada565b9150611a7e83611ada565b925082821015611a9157611a90611b56565b5b828203905092915050565b6000611aa782611aba565b9050919050565b60008115159050919050565b600073ffffffffffffffffffffffffffffffffffffffff82169050919050565b6000819050919050565b600060ff82169050919050565b60005b83811015611b0f578082015181840152602081019050611af4565b83811115611b1e576000848401525b50505050565b60006002820490506001821680611b3c57607f821691505b60208210811415611b5057611b4f611b85565b5b50919050565b7f4e487b7100000000000000000000000000000000000000000000000000000000600052601160045260246000fd5b7f4e487b7100000000000000000000000000000000000000000000000000000000600052602260045260246000fd5b6000601f19601f8301169050919050565b611bce81611a9c565b8114611bd957600080fd5b50565b611be581611ada565b8114611bf057600080fd5b5056fea2646970667358221220d8af6f369699d6c8f284196cc84b8d6c7caf42f74f7f43f942572ff49e1f972964736f6c63430008000033",
  "immutableReferences": {},
  "source": "/* SPDX-License-Identifier: UNLICENSED */\r\n\r\npragma solidity ^0.8.0;\r\n\r\n/* import 'https://github.com/OpenZeppelin/openzeppelin-contracts/blob/master/contracts/token/ERC20/ERC20.sol';\r\nimport 'https://github.com/OpenZeppelin/openzeppelin-contracts/blob/master/contracts/access/Ownable.sol'; */\r\n\r\nimport '@openzeppelin/contracts/token/ERC20/ERC20.sol';\r\nimport '@openzeppelin/contracts/access/Ownable.sol';\r\n\r\n/* For whitelisting, if implemented. */\r\n\r\ncontract WhitelistID {\r\n\r\n    mapping(address => uint256) public whitelistID;\r\n    address[] public whiteListers;\r\n    uint256 idcounter;\r\n\r\n    event createdId(address user, uint256 id);\r\n\r\n    function giveWhitelistId() internal returns (uint256)  { \r\n        require(whitelistID[msg.sender]==0, \"You are already whitelisted.\");\r\n        idcounter += 1;\r\n        whiteListers.push(msg.sender);\r\n        whitelistID[msg.sender] = idcounter;\r\n        emit createdId(msg.sender,idcounter);\r\n        return idcounter;\r\n    }\r\n\r\n}\r\n\r\n/* Each Drinker is designated an ID in order to keep track of current hours accumulated per Drinker during 1 session. */\r\n\r\ncontract poolDrinkingID {\r\n\r\n    mapping(address => uint256) public drinkingID;\r\n    uint256 drinkingIDcounter;\r\n\r\n    event createdDrinkingID(address user, uint256 id);\r\n\r\n    function givePoolDrinkingId() internal returns (uint256)  { \r\n        require(drinkingID[msg.sender]==0, \"You are already drinking.\");\r\n        drinkingIDcounter += 1;\r\n        drinkingID[msg.sender] = uint(keccak256(abi.encodePacked(block.timestamp, msg.sender)));\r\n        emit createdDrinkingID(msg.sender,drinkingID[msg.sender]);\r\n        return drinkingID[msg.sender];\r\n    }\r\n\r\n    function nullPoolDrinkingId() internal {\r\n        require(drinkingID[msg.sender] != 0, \"You haven't started drinking yet.\");\r\n        drinkingIDcounter -= 1;\r\n        drinkingID[msg.sender] = 0;\r\n    }\r\n\r\n    function getPoolDrinkingId() public view returns(uint256) {\r\n        return drinkingID[msg.sender];\r\n    }\r\n\r\n    function getNumberOfCurrentDrinkers() public view returns(uint) {\r\n        return drinkingIDcounter;\r\n    }\r\n}\r\n\r\n/* $DRNK governance token contract */\r\n\r\ncontract DRNKgovernance is ERC20, Ownable {\r\n\r\n    address public _admin;\r\n\r\n    constructor() ERC20('Drunk Governance Token', 'DRNK') {\r\n        _mint(msg.sender, 1 * (10 ** 18));\r\n        _admin = msg.sender;\r\n    }\r\n\r\n    function mintDRNK(address to, uint amount) external {\r\n        _mint(to, amount);\r\n    }\r\n\r\n    function burnDRNK(uint amount) external {\r\n        _burn(msg.sender, amount * (10 ** 18));\r\n    }\r\n\r\n}\r\n\r\ninterface IDRNKtoken {\r\n    function mintDRNK(address to, uint amount) external;\r\n}\r\n\r\n/* Main Happy Hour Protocol v2 Engine Contract */\r\n\r\ncontract HappyHourProtocolv2 is ERC20, Ownable, WhitelistID, poolDrinkingID {\r\n\r\n    uint happyHourFee = 1;\r\n    uint happyHourFeePool;\r\n    uint timeIN;\r\n    uint timeOUT;\r\n    uint hoursSpentDrinking;\r\n    uint HOUR2DRNKburnMinimum = 2000 * (10 ** 18);\r\n    uint secretCodeWhitelist = 989;\r\n    uint PDEcommissionRate = 10;\r\n    uint HOURperhour = 100;\r\n\r\n    event endHOURresults(uint hoursSpentDrinking, uint HOURearned, uint PDEcommissionEarned);\r\n    event newPDEonboarded(string _name, string _location, address indexed _address, uint _PDEid, uint PDEindexNum, uint accessCode);\r\n    event newDRNKminted(uint HOURburned, uint DRNKminted);\r\n\r\n    address public _admin;\r\n\r\n    struct PDE {\r\n        string _name;\r\n        string _location;\r\n        address _address;\r\n        uint _accessCode;\r\n        uint _PDEid;\r\n    }\r\n\r\n    PDE[] public pdes;\r\n\r\n    mapping (uint => address) public PDEtoOwner;\r\n    mapping (uint => uint) public drinkingIDtoPDEid;\r\n\r\n    /* Initializing the HappyHourProtocolv2 contract */\r\n\r\n    constructor() ERC20('Happy Hour v2', 'HOUR') {\r\n        _mint(msg.sender, 1 * (10 ** 18));\r\n        _admin = msg.sender;\r\n    }\r\n\r\n    /* Public onboarding function for PDE. Name, Location, ETH address, and a temporary Access Code are required. */\r\n\r\n    function onboardPDE(string memory _name, string memory _location, address _address, uint _accessCode) public {\r\n        uint PDEid = uint(keccak256(abi.encodePacked(_name, _location, _address)));\r\n        pdes.push(PDE(_name, _location, _address, _accessCode, PDEid));\r\n        uint PDEindexNum = pdes.length - 1;\r\n        PDEtoOwner[PDEindexNum] = msg.sender;\r\n        emit newPDEonboarded(_name, _location, _address, PDEid, PDEindexNum, _accessCode);\r\n    }\r\n\r\n    /* Enables PDEs to change their Access Code anytime */\r\n\r\n    function _changeAccessCode(uint _PDEindexNum, uint _newAccessCode) public {\r\n        require(PDEtoOwner[_PDEindexNum] == msg.sender);\r\n        pdes[_PDEindexNum]._accessCode = _newAccessCode;\r\n    }\r\n\r\n    /* Contract owner may adjust HOUR burn minimum */\r\n\r\n    function setHOUR2DRNKburnMinimum(uint _burnMinimum) external onlyOwner {\r\n        HOUR2DRNKburnMinimum = _burnMinimum * (10 ** 18);\r\n    }\r\n\r\n    /* $DRNK mint function. Requires inputting DRNK governance token contract, ETH address, and a minimum $HOUR to burn. */\r\n\r\n    function mintyDRNK(address _DRNKaddress, address to, uint _burnAmount) public {\r\n        require((_burnAmount * (10 ** 18)) >= HOUR2DRNKburnMinimum, \"Insufficient amount of HOUR tokens to burn.\");\r\n        uint DRNKneeded2mint = (_burnAmount * (10 ** 18)) / 10;\r\n        uint mintedDRNKemit = DRNKneeded2mint / (10 ** 18);\r\n        burnHOUR(_burnAmount);\r\n        IDRNKtoken(_DRNKaddress).mintDRNK(to, DRNKneeded2mint);\r\n        emit newDRNKminted(_burnAmount, mintedDRNKemit);\r\n    }\r\n\r\n    /* mintHOUR and burnHOUR functions will not be public */\r\n\r\n    function mintHOUR(address to, uint amount) external onlyOwner {\r\n        _mint(to, amount * (10 ** 18));\r\n    }\r\n\r\n    function burnHOUR(uint amount) internal {\r\n        _burn(msg.sender, amount * (10 ** 18));\r\n    }\r\n\r\n    /* Whitelisting will not be available. */\r\n\r\n    function adjustsecretCodeWhitelist(uint _newSecretCode) external onlyOwner {\r\n        secretCodeWhitelist = _newSecretCode;\r\n    }\r\n\r\n    function whitelist(address _whitelister, uint _secretCode) private {\r\n        require(_secretCode == secretCodeWhitelist, \"Invalid secret code.\");\r\n        giveWhitelistId();\r\n        _approve(_admin, _whitelister, 100);\r\n        transferFrom(_admin, _whitelister, 100);\r\n    }\r\n\r\n    /* Drinkers need to stake a minimum happy hour fee in order to start earning $HOUR. Minimum happy hour fee may be adjusted. */\r\n\r\n    function setHappyHourFee(uint _fee) external onlyOwner {\r\n        happyHourFee = _fee;\r\n    }\r\n\r\n    /* Start earning $HOUR function. Requires a minimum happy hour fee stake, the PDE's PDEid and its Access Code. */\r\n\r\n    function startHOUR(uint _PDEid, uint _accessCode) public payable {\r\n\r\n        uint validPDE;\r\n\r\n        for (uint i = 0; i < pdes.length; i++) {\r\n            if (pdes[i]._PDEid == _PDEid && pdes[i]._accessCode == _accessCode) {\r\n                validPDE = 1;\r\n            } else {\r\n                validPDE = 0;\r\n            }\r\n        }\r\n\r\n        require(validPDE == 1);\r\n        require(msg.value == happyHourFee * (10 ** 16), \"Invalid Happy Hour Fee.\");\r\n        givePoolDrinkingId();\r\n        drinkingIDtoPDEid[drinkingID[msg.sender]] = _PDEid;\r\n        happyHourFeePool += 1;\r\n        timeIN = block.timestamp;\r\n    }\r\n\r\n    /* Getter function to view ETH amount staked in current happy hour fee pool. */\r\n\r\n    function gethappyHourFeePool() public view returns (uint) {\r\n        return happyHourFeePool;\r\n    }\r\n\r\n    /* Function to stop earning $HOUR */\r\n\r\n    function endHOUR(address payable wiped) public {\r\n\r\n        address PDEcommission;\r\n        require(msg.sender == wiped);\r\n        timeOUT = block.timestamp;\r\n\r\n        for (uint i = 0; i < pdes.length; i++) {\r\n            if (pdes[i]._PDEid == drinkingIDtoPDEid[drinkingID[msg.sender]]) {\r\n                PDEcommission = pdes[i]._address;\r\n            }\r\n        }\r\n\r\n        nullPoolDrinkingId();\r\n        happyHourFeePool -= 1;\r\n        wiped.transfer(happyHourFee * (10 ** 16));\r\n        hoursSpentDrinking = (timeOUT - timeIN) / 60 / 60;\r\n        uint HOURearned = hoursSpentDrinking * (HOURperhour * (10 ** 18));\r\n        uint PDEcommissionEarned = HOURearned / PDEcommissionRate;\r\n        _mint(wiped, HOURearned);\r\n        _mint(PDEcommission, PDEcommissionEarned);\r\n        emit endHOURresults(hoursSpentDrinking, HOURearned, PDEcommissionEarned);\r\n    }\r\n\r\n    /* Adjustable earned $HOUR/hour rate */\r\n\r\n    function adjustHOURperhourRate(uint _newRate) external onlyOwner {\r\n        HOURperhour = _newRate;\r\n    }\r\n\r\n    receive() external payable {}\r\n\r\n}\r\n\r\n\r\n",
  "sourcePath": "C:\\Users\\choysauce\\documents\\python\\solidity\\truffle-test-1\\contracts\\HOURv2.sol",
  "compiler": {
    "name": "solc",
    "version": "0.8.0+commit.c7dfd78e.Emscripten.clang"
  },
  "schemaVersion": "3.4.7",
  "updatedAt": "2022-07-02T06:08:39.016Z",
  "networkType": "ethereum",
  "devdoc": {
    "kind": "dev",
    "methods": {
      "allowance(address,address)": {
        "details": "See {IERC20-allowance}."
      },
      "approve(address,uint256)": {
        "details": "See {IERC20-approve}. NOTE: If `amount` is the maximum `uint256`, the allowance is not updated on `transferFrom`. This is semantically equivalent to an infinite approval. Requirements: - `spender` cannot be the zero address."
      },
      "balanceOf(address)": {
        "details": "See {IERC20-balanceOf}."
      },
      "decimals()": {
        "details": "Returns the number of decimals used to get its user representation. For example, if `decimals` equals `2`, a balance of `505` tokens should be displayed to a user as `5.05` (`505 / 10 ** 2`). Tokens usually opt for a value of 18, imitating the relationship between Ether and Wei. This is the value {ERC20} uses, unless this function is overridden; NOTE: This information is only used for _display_ purposes: it in no way affects any of the arithmetic of the contract, including {IERC20-balanceOf} and {IERC20-transfer}."
      },
      "decreaseAllowance(address,uint256)": {
        "details": "Atomically decreases the allowance granted to `spender` by the caller. This is an alternative to {approve} that can be used as a mitigation for problems described in {IERC20-approve}. Emits an {Approval} event indicating the updated allowance. Requirements: - `spender` cannot be the zero address. - `spender` must have allowance for the caller of at least `subtractedValue`."
      },
      "increaseAllowance(address,uint256)": {
        "details": "Atomically increases the allowance granted to `spender` by the caller. This is an alternative to {approve} that can be used as a mitigation for problems described in {IERC20-approve}. Emits an {Approval} event indicating the updated allowance. Requirements: - `spender` cannot be the zero address."
      },
      "name()": {
        "details": "Returns the name of the token."
      },
      "owner()": {
        "details": "Returns the address of the current owner."
      },
      "renounceOwnership()": {
        "details": "Leaves the contract without owner. It will not be possible to call `onlyOwner` functions anymore. Can only be called by the current owner. NOTE: Renouncing ownership will leave the contract without an owner, thereby removing any functionality that is only available to the owner."
      },
      "symbol()": {
        "details": "Returns the symbol of the token, usually a shorter version of the name."
      },
      "totalSupply()": {
        "details": "See {IERC20-totalSupply}."
      },
      "transfer(address,uint256)": {
        "details": "See {IERC20-transfer}. Requirements: - `to` cannot be the zero address. - the caller must have a balance of at least `amount`."
      },
      "transferFrom(address,address,uint256)": {
        "details": "See {IERC20-transferFrom}. Emits an {Approval} event indicating the updated allowance. This is not required by the EIP. See the note at the beginning of {ERC20}. NOTE: Does not update the allowance if the current allowance is the maximum `uint256`. Requirements: - `from` and `to` cannot be the zero address. - `from` must have a balance of at least `amount`. - the caller must have allowance for ``from``'s tokens of at least `amount`."
      },
      "transferOwnership(address)": {
        "details": "Transfers ownership of the contract to a new account (`newOwner`). Can only be called by the current owner."
      }
    },
    "version": 1
  },
  "userdoc": {
    "kind": "user",
    "methods": {},
    "version": 1
  }
}