{
  "contractName": "HappyHourProtocolv2",
  "abi": [
    {
      "inputs": [],
      "stateMutability": "nonpayable",
      "type": "constructor"
    },
    {
      "anonymous": false,
      "inputs": [
        {
          "indexed": true,
          "internalType": "address",
          "name": "owner",
          "type": "address"
        },
        {
          "indexed": true,
          "internalType": "address",
          "name": "spender",
          "type": "address"
        },
        {
          "indexed": false,
          "internalType": "uint256",
          "name": "value",
          "type": "uint256"
        }
      ],
      "name": "Approval",
      "type": "event"
    },
    {
      "anonymous": false,
      "inputs": [
        {
          "indexed": true,
          "internalType": "address",
          "name": "previousOwner",
          "type": "address"
        },
        {
          "indexed": true,
          "internalType": "address",
          "name": "newOwner",
          "type": "address"
        }
      ],
      "name": "OwnershipTransferred",
      "type": "event"
    },
    {
      "anonymous": false,
      "inputs": [
        {
          "indexed": true,
          "internalType": "address",
          "name": "from",
          "type": "address"
        },
        {
          "indexed": true,
          "internalType": "address",
          "name": "to",
          "type": "address"
        },
        {
          "indexed": false,
          "internalType": "uint256",
          "name": "value",
          "type": "uint256"
        }
      ],
      "name": "Transfer",
      "type": "event"
    },
    {
      "anonymous": false,
      "inputs": [
        {
          "indexed": false,
          "internalType": "address",
          "name": "user",
          "type": "address"
        },
        {
          "indexed": false,
          "internalType": "uint256",
          "name": "id",
          "type": "uint256"
        }
      ],
      "name": "createdDrinkingID",
      "type": "event"
    },
    {
      "anonymous": false,
      "inputs": [
        {
          "indexed": false,
          "internalType": "address",
          "name": "user",
          "type": "address"
        },
        {
          "indexed": false,
          "internalType": "uint256",
          "name": "id",
          "type": "uint256"
        }
      ],
      "name": "createdId",
      "type": "event"
    },
    {
      "anonymous": false,
      "inputs": [
        {
          "indexed": false,
          "internalType": "uint256",
          "name": "hoursSpentDrinking",
          "type": "uint256"
        },
        {
          "indexed": false,
          "internalType": "uint256",
          "name": "HOURearned",
          "type": "uint256"
        },
        {
          "indexed": false,
          "internalType": "uint256",
          "name": "PDEcommissionEarned",
          "type": "uint256"
        }
      ],
      "name": "endHOURresults",
      "type": "event"
    },
    {
      "anonymous": false,
      "inputs": [
        {
          "indexed": false,
          "internalType": "uint256",
          "name": "HOURburned",
          "type": "uint256"
        },
        {
          "indexed": false,
          "internalType": "uint256",
          "name": "DRNKminted",
          "type": "uint256"
        }
      ],
      "name": "newDRNKminted",
      "type": "event"
    },
    {
      "anonymous": false,
      "inputs": [
        {
          "indexed": false,
          "internalType": "string",
          "name": "_name",
          "type": "string"
        },
        {
          "indexed": false,
          "internalType": "string",
          "name": "_location",
          "type": "string"
        },
        {
          "indexed": true,
          "internalType": "address",
          "name": "_address",
          "type": "address"
        },
        {
          "indexed": false,
          "internalType": "uint256",
          "name": "_PDEid",
          "type": "uint256"
        },
        {
          "indexed": false,
          "internalType": "uint256",
          "name": "PDEindexNum",
          "type": "uint256"
        },
        {
          "indexed": false,
          "internalType": "uint256",
          "name": "accessCode",
          "type": "uint256"
        }
      ],
      "name": "newPDEonboarded",
      "type": "event"
    },
    {
      "inputs": [
        {
          "internalType": "uint256",
          "name": "",
          "type": "uint256"
        }
      ],
      "name": "PDEtoOwner",
      "outputs": [
        {
          "internalType": "address",
          "name": "",
          "type": "address"
        }
      ],
      "stateMutability": "view",
      "type": "function",
      "constant": true
    },
    {
      "inputs": [],
      "name": "_admin",
      "outputs": [
        {
          "internalType": "address",
          "name": "",
          "type": "address"
        }
      ],
      "stateMutability": "view",
      "type": "function",
      "constant": true
    },
    {
      "inputs": [
        {
          "internalType": "address",
          "name": "owner",
          "type": "address"
        },
        {
          "internalType": "address",
          "name": "spender",
          "type": "address"
        }
      ],
      "name": "allowance",
      "outputs": [
        {
          "internalType": "uint256",
          "name": "",
          "type": "uint256"
        }
      ],
      "stateMutability": "view",
      "type": "function",
      "constant": true
    },
    {
      "inputs": [
        {
          "internalType": "address",
          "name": "spender",
          "type": "address"
        },
        {
          "internalType": "uint256",
          "name": "amount",
          "type": "uint256"
        }
      ],
      "name": "approve",
      "outputs": [
        {
          "internalType": "bool",
          "name": "",
          "type": "bool"
        }
      ],
      "stateMutability": "nonpayable",
      "type": "function"
    },
    {
      "inputs": [
        {
          "internalType": "address",
          "name": "account",
          "type": "address"
        }
      ],
      "name": "balanceOf",
      "outputs": [
        {
          "internalType": "uint256",
          "name": "",
          "type": "uint256"
        }
      ],
      "stateMutability": "view",
      "type": "function",
      "constant": true
    },
    {
      "inputs": [],
      "name": "decimals",
      "outputs": [
        {
          "internalType": "uint8",
          "name": "",
          "type": "uint8"
        }
      ],
      "stateMutability": "view",
      "type": "function",
      "constant": true
    },
    {
      "inputs": [
        {
          "internalType": "address",
          "name": "spender",
          "type": "address"
        },
        {
          "internalType": "uint256",
          "name": "subtractedValue",
          "type": "uint256"
        }
      ],
      "name": "decreaseAllowance",
      "outputs": [
        {
          "internalType": "bool",
          "name": "",
          "type": "bool"
        }
      ],
      "stateMutability": "nonpayable",
      "type": "function"
    },
    {
      "inputs": [
        {
          "internalType": "address",
          "name": "",
          "type": "address"
        }
      ],
      "name": "drinkingID",
      "outputs": [
        {
          "internalType": "uint256",
          "name": "",
          "type": "uint256"
        }
      ],
      "stateMutability": "view",
      "type": "function",
      "constant": true
    },
    {
      "inputs": [
        {
          "internalType": "uint256",
          "name": "",
          "type": "uint256"
        }
      ],
      "name": "drinkingIDtoPDEid",
      "outputs": [
        {
          "internalType": "uint256",
          "name": "",
          "type": "uint256"
        }
      ],
      "stateMutability": "view",
      "type": "function",
      "constant": true
    },
    {
      "inputs": [],
      "name": "getNumberOfCurrentDrinkers",
      "outputs": [
        {
          "internalType": "uint256",
          "name": "",
          "type": "uint256"
        }
      ],
      "stateMutability": "view",
      "type": "function",
      "constant": true
    },
    {
      "inputs": [],
      "name": "getPoolDrinkingId",
      "outputs": [
        {
          "internalType": "uint256",
          "name": "",
          "type": "uint256"
        }
      ],
      "stateMutability": "view",
      "type": "function",
      "constant": true
    },
    {
      "inputs": [
        {
          "internalType": "address",
          "name": "spender",
          "type": "address"
        },
        {
          "internalType": "uint256",
          "name": "addedValue",
          "type": "uint256"
        }
      ],
      "name": "increaseAllowance",
      "outputs": [
        {
          "internalType": "bool",
          "name": "",
          "type": "bool"
        }
      ],
      "stateMutability": "nonpayable",
      "type": "function"
    },
    {
      "inputs": [],
      "name": "name",
      "outputs": [
        {
          "internalType": "string",
          "name": "",
          "type": "string"
        }
      ],
      "stateMutability": "view",
      "type": "function",
      "constant": true
    },
    {
      "inputs": [],
      "name": "owner",
      "outputs": [
        {
          "internalType": "address",
          "name": "",
          "type": "address"
        }
      ],
      "stateMutability": "view",
      "type": "function",
      "constant": true
    },
    {
      "inputs": [
        {
          "internalType": "uint256",
          "name": "",
          "type": "uint256"
        }
      ],
      "name": "pdes",
      "outputs": [
        {
          "internalType": "string",
          "name": "_name",
          "type": "string"
        },
        {
          "internalType": "string",
          "name": "_location",
          "type": "string"
        },
        {
          "internalType": "address",
          "name": "_address",
          "type": "address"
        },
        {
          "internalType": "uint256",
          "name": "_accessCode",
          "type": "uint256"
        },
        {
          "internalType": "uint256",
          "name": "_PDEid",
          "type": "uint256"
        }
      ],
      "stateMutability": "view",
      "type": "function",
      "constant": true
    },
    {
      "inputs": [],
      "name": "renounceOwnership",
      "outputs": [],
      "stateMutability": "nonpayable",
      "type": "function"
    },
    {
      "inputs": [],
      "name": "symbol",
      "outputs": [
        {
          "internalType": "string",
          "name": "",
          "type": "string"
        }
      ],
      "stateMutability": "view",
      "type": "function",
      "constant": true
    },
    {
      "inputs": [],
      "name": "totalSupply",
      "outputs": [
        {
          "internalType": "uint256",
          "name": "",
          "type": "uint256"
        }
      ],
      "stateMutability": "view",
      "type": "function",
      "constant": true
    },
    {
      "inputs": [
        {
          "internalType": "address",
          "name": "to",
          "type": "address"
        },
        {
          "internalType": "uint256",
          "name": "amount",
          "type": "uint256"
        }
      ],
      "name": "transfer",
      "outputs": [
        {
          "internalType": "bool",
          "name": "",
          "type": "bool"
        }
      ],
      "stateMutability": "nonpayable",
      "type": "function"
    },
    {
      "inputs": [
        {
          "internalType": "address",
          "name": "from",
          "type": "address"
        },
        {
          "internalType": "address",
          "name": "to",
          "type": "address"
        },
        {
          "internalType": "uint256",
          "name": "amount",
          "type": "uint256"
        }
      ],
      "name": "transferFrom",
      "outputs": [
        {
          "internalType": "bool",
          "name": "",
          "type": "bool"
        }
      ],
      "stateMutability": "nonpayable",
      "type": "function"
    },
    {
      "inputs": [
        {
          "internalType": "address",
          "name": "newOwner",
          "type": "address"
        }
      ],
      "name": "transferOwnership",
      "outputs": [],
      "stateMutability": "nonpayable",
      "type": "function"
    },
    {
      "inputs": [
        {
          "internalType": "uint256",
          "name": "",
          "type": "uint256"
        }
      ],
      "name": "whiteListers",
      "outputs": [
        {
          "internalType": "address",
          "name": "",
          "type": "address"
        }
      ],
      "stateMutability": "view",
      "type": "function",
      "constant": true
    },
    {
      "inputs": [
        {
          "internalType": "address",
          "name": "",
          "type": "address"
        }
      ],
      "name": "whitelistID",
      "outputs": [
        {
          "internalType": "uint256",
          "name": "",
          "type": "uint256"
        }
      ],
      "stateMutability": "view",
      "type": "function",
      "constant": true
    },
    {
      "stateMutability": "payable",
      "type": "receive",
      "payable": true
    },
    {
      "inputs": [
        {
          "internalType": "string",
          "name": "_name",
          "type": "string"
        },
        {
          "internalType": "string",
          "name": "_location",
          "type": "string"
        },
        {
          "internalType": "address",
          "name": "_address",
          "type": "address"
        },
        {
          "internalType": "uint256",
          "name": "_accessCode",
          "type": "uint256"
        }
      ],
      "name": "onboardPDE",
      "outputs": [],
      "stateMutability": "nonpayable",
      "type": "function"
    },
    {
      "inputs": [
        {
          "internalType": "uint256",
          "name": "_PDEindexNum",
          "type": "uint256"
        },
        {
          "internalType": "uint256",
          "name": "_newAccessCode",
          "type": "uint256"
        }
      ],
      "name": "_changeAccessCode",
      "outputs": [],
      "stateMutability": "nonpayable",
      "type": "function"
    },
    {
      "inputs": [
        {
          "internalType": "uint256",
          "name": "_burnMinimum",
          "type": "uint256"
        }
      ],
      "name": "setHOUR2DRNKburnMinimum",
      "outputs": [],
      "stateMutability": "nonpayable",
      "type": "function"
    },
    {
      "inputs": [
        {
          "internalType": "address",
          "name": "_DRNKaddress",
          "type": "address"
        },
        {
          "internalType": "address",
          "name": "to",
          "type": "address"
        },
        {
          "internalType": "uint256",
          "name": "_burnAmount",
          "type": "uint256"
        }
      ],
      "name": "mintyDRNK",
      "outputs": [],
      "stateMutability": "nonpayable",
      "type": "function"
    },
    {
      "inputs": [
        {
          "internalType": "address",
          "name": "to",
          "type": "address"
        },
        {
          "internalType": "uint256",
          "name": "amount",
          "type": "uint256"
        }
      ],
      "name": "mintHOUR",
      "outputs": [],
      "stateMutability": "nonpayable",
      "type": "function"
    },
    {
      "inputs": [
        {
          "internalType": "uint256",
          "name": "_newSecretCode",
          "type": "uint256"
        }
      ],
      "name": "adjustsecretCodeWhitelist",
      "outputs": [],
      "stateMutability": "nonpayable",
      "type": "function"
    },
    {
      "inputs": [
        {
          "internalType": "uint256",
          "name": "_fee",
          "type": "uint256"
        }
      ],
      "name": "setHappyHourFee",
      "outputs": [],
      "stateMutability": "nonpayable",
      "type": "function"
    },
    {
      "inputs": [
        {
          "internalType": "uint256",
          "name": "_PDEid",
          "type": "uint256"
        },
        {
          "internalType": "uint256",
          "name": "_accessCode",
          "type": "uint256"
        }
      ],
      "name": "startHOUR",
      "outputs": [],
      "stateMutability": "payable",
      "type": "function",
      "payable": true
    },
    {
      "inputs": [],
      "name": "gethappyHourFeePool",
      "outputs": [
        {
          "internalType": "uint256",
          "name": "",
          "type": "uint256"
        }
      ],
      "stateMutability": "view",
      "type": "function",
      "constant": true
    },
    {
      "inputs": [
        {
          "internalType": "address payable",
          "name": "wiped",
          "type": "address"
        }
      ],
      "name": "endHOUR",
      "outputs": [],
      "stateMutability": "nonpayable",
      "type": "function"
    },
    {
      "inputs": [
        {
          "internalType": "uint256",
          "name": "_newRate",
          "type": "uint256"
        }
      ],
      "name": "adjustHOURperhourRate",
      "outputs": [],
      "stateMutability": "nonpayable",
      "type": "function"
    }
  ],
  "bytecode": "0x60806040526001600b55686c6b935b8bbd4000006010556103dd601155600a60125560646013553480156200003357600080fd5b506040518060400160405280600d81526020017f486170707920486f7572207632000000000000000000000000000000000000008152506040518060400160405280600481526020017f484f5552000000000000000000000000000000000000000000000000000000008152508160039080519060200190620000b8929190620003a6565b508060049080519060200190620000d1929190620003a6565b505050620000f4620000e86200015560201b60201c565b6200015d60201b60201c565b6200010e33670de0b6b3a76400006200022360201b60201c565b33601460006101000a81548173ffffffffffffffffffffffffffffffffffffffff021916908373ffffffffffffffffffffffffffffffffffffffff160217905550620005f4565b600033905090565b6000600560009054906101000a900473ffffffffffffffffffffffffffffffffffffffff16905081600560006101000a81548173ffffffffffffffffffffffffffffffffffffffff021916908373ffffffffffffffffffffffffffffffffffffffff1602179055508173ffffffffffffffffffffffffffffffffffffffff168173ffffffffffffffffffffffffffffffffffffffff167f8be0079c531659141344cd1fd0a4f28419497f9722a3daafe3b4186f6b6457e060405160405180910390a35050565b600073ffffffffffffffffffffffffffffffffffffffff168273ffffffffffffffffffffffffffffffffffffffff16141562000296576040517f08c379a00000000000000000000000000000000000000000000000000000000081526004016200028d90620004a9565b60405180910390fd5b620002aa600083836200039c60201b60201c565b8060026000828254620002be9190620004f9565b92505081905550806000808473ffffffffffffffffffffffffffffffffffffffff1673ffffffffffffffffffffffffffffffffffffffff1681526020019081526020016000206000828254620003159190620004f9565b925050819055508173ffffffffffffffffffffffffffffffffffffffff16600073ffffffffffffffffffffffffffffffffffffffff167fddf252ad1be2c89b69c2b068fc378daa952ba7f163c4a11628f55a4df523b3ef836040516200037c9190620004cb565b60405180910390a36200039860008383620003a160201b60201c565b5050565b505050565b505050565b828054620003b49062000560565b90600052602060002090601f016020900481019282620003d8576000855562000424565b82601f10620003f357805160ff191683800117855562000424565b8280016001018555821562000424579182015b828111156200042357825182559160200191906001019062000406565b5b50905062000433919062000437565b5090565b5b808211156200045257600081600090555060010162000438565b5090565b600062000465601f83620004e8565b91507f45524332303a206d696e7420746f20746865207a65726f2061646472657373006000830152602082019050919050565b620004a38162000556565b82525050565b60006020820190508181036000830152620004c48162000456565b9050919050565b6000602082019050620004e2600083018462000498565b92915050565b600082825260208201905092915050565b6000620005068262000556565b9150620005138362000556565b9250827fffffffffffffffffffffffffffffffffffffffffffffffffffffffffffffffff038211156200054b576200054a62000596565b5b828201905092915050565b6000819050919050565b600060028204905060018216806200057957607f821691505b6020821081141562000590576200058f620005c5565b5b50919050565b7f4e487b7100000000000000000000000000000000000000000000000000000000600052601160045260246000fd5b7f4e487b7100000000000000000000000000000000000000000000000000000000600052602260045260246000fd5b61394180620006046000396000f3fe6080604052600436106101fd5760003560e01c8063715018a61161010d5780639fca0132116100a0578063dd62ed3e1161006f578063dd62ed3e14610781578063dd898159146107be578063e0ce325a146107e7578063f2fde38b14610824578063f546c4991461084d57610204565b80639fca01321461068d578063a457c2d7146106ca578063a9059cbb14610707578063b0647d311461074457610204565b806395d89b41116100dc57806395d89b41146105da57806396039aa3146106055780639729d11e146106305780639ac1dc451461067157610204565b8063715018a61461054457806375937b471461055b57806375baf63f146105865780638da5cb5b146105af57610204565b806318160ddd11610190578063313ce5671161015f578063313ce5671461043957806332aa8a511461046457806339509351146104a15780634638f138146104de57806370a082311461050757610204565b806318160ddd1461037f57806323b872dd146103aa57806327c21b47146103e75780632a3bdcf31461041057610204565b8063095ea7b3116101cc578063095ea7b3146102b35780630d3ac8d2146102f057806314cae0661461032d578063160a33941461035657610204565b806301bc45c914610209578063067a0d4e1461023457806306c499b71461025d57806306fdde031461028857610204565b3661020457005b600080fd5b34801561021557600080fd5b5061021e610876565b60405161022b9190613124565b60405180910390f35b34801561024057600080fd5b5061025b60048036038101906102569190612919565b61089c565b005b34801561026957600080fd5b50610272610939565b60405161027f9190613467565b60405180910390f35b34801561029457600080fd5b5061029d610943565b6040516102aa9190613183565b60405180910390f35b3480156102bf57600080fd5b506102da60048036038101906102d59190612919565b6109d5565b6040516102e79190613168565b60405180910390f35b3480156102fc57600080fd5b506103176004803603810190610312919061283c565b6109f8565b6040516103249190613467565b60405180910390f35b34801561033957600080fd5b50610354600480360381019061034f91906129e8565b610a10565b005b34801561036257600080fd5b5061037d600480360381019061037891906129e8565b610a96565b005b34801561038b57600080fd5b50610394610b1c565b6040516103a19190613467565b60405180910390f35b3480156103b657600080fd5b506103d160048036038101906103cc91906128ca565b610b26565b6040516103de9190613168565b60405180910390f35b3480156103f357600080fd5b5061040e600480360381019061040991906129e8565b610b55565b005b34801561041c57600080fd5b5061043760048036038101906104329190612955565b610bdb565b005b34801561044557600080fd5b5061044e610dd2565b60405161045b91906134e2565b60405180910390f35b34801561047057600080fd5b5061048b600480360381019061048691906129e8565b610ddb565b6040516104989190613467565b60405180910390f35b3480156104ad57600080fd5b506104c860048036038101906104c39190612919565b610df3565b6040516104d59190613168565b60405180910390f35b3480156104ea57600080fd5b5061050560048036038101906105009190612865565b610e2a565b005b34801561051357600080fd5b5061052e6004803603810190610529919061283c565b6110dd565b60405161053b9190613467565b60405180910390f35b34801561055057600080fd5b50610559611125565b005b34801561056757600080fd5b506105706111ad565b60405161057d9190613467565b60405180910390f35b34801561059257600080fd5b506105ad60048036038101906105a891906129e8565b6111b7565b005b3480156105bb57600080fd5b506105c4611250565b6040516105d19190613124565b60405180910390f35b3480156105e657600080fd5b506105ef61127a565b6040516105fc9190613183565b60405180910390f35b34801561061157600080fd5b5061061a61130c565b6040516106279190613467565b60405180910390f35b34801561063c57600080fd5b50610657600480360381019061065291906129e8565b611353565b6040516106689594939291906131a5565b60405180910390f35b61068b60048036038101906106869190612a11565b6114c9565b005b34801561069957600080fd5b506106b460048036038101906106af91906129e8565b611692565b6040516106c19190613124565b60405180910390f35b3480156106d657600080fd5b506106f160048036038101906106ec9190612919565b6116c5565b6040516106fe9190613168565b60405180910390f35b34801561071357600080fd5b5061072e60048036038101906107299190612919565b61173c565b60405161073b9190613168565b60405180910390f35b34801561075057600080fd5b5061076b6004803603810190610766919061283c565b61175f565b6040516107789190613467565b60405180910390f35b34801561078d57600080fd5b506107a860048036038101906107a3919061288e565b611777565b6040516107b59190613467565b60405180910390f35b3480156107ca57600080fd5b506107e560048036038101906107e09190612a11565b6117fe565b005b3480156107f357600080fd5b5061080e600480360381019061080991906129e8565b6118bd565b60405161081b9190613124565b60405180910390f35b34801561083057600080fd5b5061084b6004803603810190610846919061283c565b6118fc565b005b34801561085957600080fd5b50610874600480360381019061086f91906128ca565b6119f4565b005b601460009054906101000a900473ffffffffffffffffffffffffffffffffffffffff1681565b6108a4611b3e565b73ffffffffffffffffffffffffffffffffffffffff166108c2611250565b73ffffffffffffffffffffffffffffffffffffffff1614610918576040517f08c379a000000000000000000000000000000000000000000000000000000000815260040161090f90613387565b60405180910390fd5b61093582670de0b6b3a764000083610930919061360c565b611b46565b5050565b6000600c54905090565b60606003805461095290613743565b80601f016020809104026020016040519081016040528092919081815260200182805461097e90613743565b80156109cb5780601f106109a0576101008083540402835291602001916109cb565b820191906000526020600020905b8154815290600101906020018083116109ae57829003601f168201915b5050505050905090565b6000806109e0611b3e565b90506109ed818585611ca6565b600191505092915050565b60096020528060005260406000206000915090505481565b610a18611b3e565b73ffffffffffffffffffffffffffffffffffffffff16610a36611250565b73ffffffffffffffffffffffffffffffffffffffff1614610a8c576040517f08c379a0000000000000000000000000000000000000000000000000000000008152600401610a8390613387565b60405180910390fd5b80600b8190555050565b610a9e611b3e565b73ffffffffffffffffffffffffffffffffffffffff16610abc611250565b73ffffffffffffffffffffffffffffffffffffffff1614610b12576040517f08c379a0000000000000000000000000000000000000000000000000000000008152600401610b0990613387565b60405180910390fd5b8060138190555050565b6000600254905090565b600080610b31611b3e565b9050610b3e858285611e71565b610b49858585611efd565b60019150509392505050565b610b5d611b3e565b73ffffffffffffffffffffffffffffffffffffffff16610b7b611250565b73ffffffffffffffffffffffffffffffffffffffff1614610bd1576040517f08c379a0000000000000000000000000000000000000000000000000000000008152600401610bc890613387565b60405180910390fd5b8060118190555050565b6000848484604051602001610bf2939291906130c3565b6040516020818303038152906040528051906020012060001c905060156040518060a001604052808781526020018681526020018573ffffffffffffffffffffffffffffffffffffffff1681526020018481526020018381525090806001815401808255809150506001900390600052602060002090600502016000909190919091506000820151816000019080519060200190610c919291906126f2565b506020820151816001019080519060200190610cae9291906126f2565b5060408201518160020160006101000a81548173ffffffffffffffffffffffffffffffffffffffff021916908373ffffffffffffffffffffffffffffffffffffffff1602179055506060820151816003015560808201518160040155505060006001601580549050610d209190613666565b9050336016600083815260200190815260200160002060006101000a81548173ffffffffffffffffffffffffffffffffffffffff021916908373ffffffffffffffffffffffffffffffffffffffff1602179055508373ffffffffffffffffffffffffffffffffffffffff167fd6fd709138c3a0378ad0d75272bc485fb921c636bf289e47774904bad92fc5758787858588604051610dc2959493929190613206565b60405180910390a2505050505050565b60006012905090565b60176020528060005260406000206000915090505481565b600080610dfe611b3e565b9050610e1f818585610e108589611777565b610e1a9190613585565b611ca6565b600191505092915050565b60008173ffffffffffffffffffffffffffffffffffffffff163373ffffffffffffffffffffffffffffffffffffffff1614610e6457600080fd5b42600e8190555060005b601580549050811015610fa25760176000600960003373ffffffffffffffffffffffffffffffffffffffff1673ffffffffffffffffffffffffffffffffffffffff1681526020019081526020016000205481526020019081526020016000205460158281548110610f08577f4e487b7100000000000000000000000000000000000000000000000000000000600052603260045260246000fd5b9060005260206000209060050201600401541415610f8f5760158181548110610f5a577f4e487b7100000000000000000000000000000000000000000000000000000000600052603260045260246000fd5b906000526020600020906005020160020160009054906101000a900473ffffffffffffffffffffffffffffffffffffffff1691505b8080610f9a90613775565b915050610e6e565b50610fab61217e565b6001600c6000828254610fbe9190613666565b925050819055508173ffffffffffffffffffffffffffffffffffffffff166108fc662386f26fc10000600b54610ff4919061360c565b9081150290604051600060405180830381858888f1935050505015801561101f573d6000803e3d6000fd5b50603c80600d54600e546110339190613666565b61103d91906135db565b61104791906135db565b600f819055506000670de0b6b3a7640000601354611065919061360c565b600f54611072919061360c565b905060006012548261108491906135db565b90506110908483611b46565b61109a8382611b46565b7fe00b701d9184648c5fb36ba71d92b01a07ab793dfd4ea52892bacb1cfd5bb7d5600f5483836040516110cf939291906134ab565b60405180910390a150505050565b60008060008373ffffffffffffffffffffffffffffffffffffffff1673ffffffffffffffffffffffffffffffffffffffff168152602001908152602001600020549050919050565b61112d611b3e565b73ffffffffffffffffffffffffffffffffffffffff1661114b611250565b73ffffffffffffffffffffffffffffffffffffffff16146111a1576040517f08c379a000000000000000000000000000000000000000000000000000000000815260040161119890613387565b60405180910390fd5b6111ab6000612262565b565b6000600a54905090565b6111bf611b3e565b73ffffffffffffffffffffffffffffffffffffffff166111dd611250565b73ffffffffffffffffffffffffffffffffffffffff1614611233576040517f08c379a000000000000000000000000000000000000000000000000000000000815260040161122a90613387565b60405180910390fd5b670de0b6b3a764000081611247919061360c565b60108190555050565b6000600560009054906101000a900473ffffffffffffffffffffffffffffffffffffffff16905090565b60606004805461128990613743565b80601f01602080910402602001604051908101604052809291908181526020018280546112b590613743565b80156113025780601f106112d757610100808354040283529160200191611302565b820191906000526020600020905b8154815290600101906020018083116112e557829003601f168201915b5050505050905090565b6000600960003373ffffffffffffffffffffffffffffffffffffffff1673ffffffffffffffffffffffffffffffffffffffff16815260200190815260200160002054905090565b6015818154811061136357600080fd5b906000526020600020906005020160009150905080600001805461138690613743565b80601f01602080910402602001604051908101604052809291908181526020018280546113b290613743565b80156113ff5780601f106113d4576101008083540402835291602001916113ff565b820191906000526020600020905b8154815290600101906020018083116113e257829003601f168201915b50505050509080600101805461141490613743565b80601f016020809104026020016040519081016040528092919081815260200182805461144090613743565b801561148d5780601f106114625761010080835404028352916020019161148d565b820191906000526020600020905b81548152906001019060200180831161147057829003601f168201915b5050505050908060020160009054906101000a900473ffffffffffffffffffffffffffffffffffffffff16908060030154908060040154905085565b600080600090505b6015805490508110156115a8578360158281548110611519577f4e487b7100000000000000000000000000000000000000000000000000000000600052603260045260246000fd5b9060005260206000209060050201600401541480156115825750826015828154811061156e577f4e487b7100000000000000000000000000000000000000000000000000000000600052603260045260246000fd5b906000526020600020906005020160030154145b156115905760019150611595565b600091505b80806115a090613775565b9150506114d1565b50600181146115b657600080fd5b662386f26fc10000600b546115cb919061360c565b341461160c576040517f08c379a000000000000000000000000000000000000000000000000000000000815260040161160390613407565b60405180910390fd5b611614612328565b508260176000600960003373ffffffffffffffffffffffffffffffffffffffff1673ffffffffffffffffffffffffffffffffffffffff168152602001908152602001600020548152602001908152602001600020819055506001600c600082825461167f9190613585565b9250508190555042600d81905550505050565b60166020528060005260406000206000915054906101000a900473ffffffffffffffffffffffffffffffffffffffff1681565b6000806116d0611b3e565b905060006116de8286611777565b905083811015611723576040517f08c379a000000000000000000000000000000000000000000000000000000000815260040161171a90613427565b60405180910390fd5b6117308286868403611ca6565b60019250505092915050565b600080611747611b3e565b9050611754818585611efd565b600191505092915050565b60066020528060005260406000206000915090505481565b6000600160008473ffffffffffffffffffffffffffffffffffffffff1673ffffffffffffffffffffffffffffffffffffffff16815260200190815260200160002060008373ffffffffffffffffffffffffffffffffffffffff1673ffffffffffffffffffffffffffffffffffffffff16815260200190815260200160002054905092915050565b3373ffffffffffffffffffffffffffffffffffffffff166016600084815260200190815260200160002060009054906101000a900473ffffffffffffffffffffffffffffffffffffffff1673ffffffffffffffffffffffffffffffffffffffff161461186957600080fd5b80601583815481106118a4577f4e487b7100000000000000000000000000000000000000000000000000000000600052603260045260246000fd5b9060005260206000209060050201600301819055505050565b600781815481106118cd57600080fd5b906000526020600020016000915054906101000a900473ffffffffffffffffffffffffffffffffffffffff1681565b611904611b3e565b73ffffffffffffffffffffffffffffffffffffffff16611922611250565b73ffffffffffffffffffffffffffffffffffffffff1614611978576040517f08c379a000000000000000000000000000000000000000000000000000000000815260040161196f90613387565b60405180910390fd5b600073ffffffffffffffffffffffffffffffffffffffff168173ffffffffffffffffffffffffffffffffffffffff1614156119e8576040517f08c379a00000000000000000000000000000000000000000000000000000000081526004016119df906132a7565b60405180910390fd5b6119f181612262565b50565b601054670de0b6b3a764000082611a0b919061360c565b1015611a4c576040517f08c379a0000000000000000000000000000000000000000000000000000000008152600401611a4390613367565b60405180910390fd5b6000600a670de0b6b3a764000083611a64919061360c565b611a6e91906135db565b90506000670de0b6b3a764000082611a8691906135db565b9050611a91836124f1565b8473ffffffffffffffffffffffffffffffffffffffff16631d992d2285846040518363ffffffff1660e01b8152600401611acc92919061313f565b600060405180830381600087803b158015611ae657600080fd5b505af1158015611afa573d6000803e3d6000fd5b505050507ffe401de81dca00f53e547350f47eabbf0f478efa81db5f4c171c9d0fa4aa71f58382604051611b2f929190613482565b60405180910390a15050505050565b600033905090565b600073ffffffffffffffffffffffffffffffffffffffff168273ffffffffffffffffffffffffffffffffffffffff161415611bb6576040517f08c379a0000000000000000000000000000000000000000000000000000000008152600401611bad90613447565b60405180910390fd5b611bc260008383612511565b8060026000828254611bd49190613585565b92505081905550806000808473ffffffffffffffffffffffffffffffffffffffff1673ffffffffffffffffffffffffffffffffffffffff1681526020019081526020016000206000828254611c299190613585565b925050819055508173ffffffffffffffffffffffffffffffffffffffff16600073ffffffffffffffffffffffffffffffffffffffff167fddf252ad1be2c89b69c2b068fc378daa952ba7f163c4a11628f55a4df523b3ef83604051611c8e9190613467565b60405180910390a3611ca260008383612516565b5050565b600073ffffffffffffffffffffffffffffffffffffffff168373ffffffffffffffffffffffffffffffffffffffff161415611d16576040517f08c379a0000000000000000000000000000000000000000000000000000000008152600401611d0d906133e7565b60405180910390fd5b600073ffffffffffffffffffffffffffffffffffffffff168273ffffffffffffffffffffffffffffffffffffffff161415611d86576040517f08c379a0000000000000000000000000000000000000000000000000000000008152600401611d7d906132c7565b60405180910390fd5b80600160008573ffffffffffffffffffffffffffffffffffffffff1673ffffffffffffffffffffffffffffffffffffffff16815260200190815260200160002060008473ffffffffffffffffffffffffffffffffffffffff1673ffffffffffffffffffffffffffffffffffffffff168152602001908152602001600020819055508173ffffffffffffffffffffffffffffffffffffffff168373ffffffffffffffffffffffffffffffffffffffff167f8c5be1e5ebec7d5bd14f71427d1e84f3dd0314c0f7b2291e5b200ac8c7c3b92583604051611e649190613467565b60405180910390a3505050565b6000611e7d8484611777565b90507fffffffffffffffffffffffffffffffffffffffffffffffffffffffffffffffff8114611ef75781811015611ee9576040517f08c379a0000000000000000000000000000000000000000000000000000000008152600401611ee090613307565b60405180910390fd5b611ef68484848403611ca6565b5b50505050565b600073ffffffffffffffffffffffffffffffffffffffff168373ffffffffffffffffffffffffffffffffffffffff161415611f6d576040517f08c379a0000000000000000000000000000000000000000000000000000000008152600401611f64906133c7565b60405180910390fd5b600073ffffffffffffffffffffffffffffffffffffffff168273ffffffffffffffffffffffffffffffffffffffff161415611fdd576040517f08c379a0000000000000000000000000000000000000000000000000000000008152600401611fd490613267565b60405180910390fd5b611fe8838383612511565b60008060008573ffffffffffffffffffffffffffffffffffffffff1673ffffffffffffffffffffffffffffffffffffffff1681526020019081526020016000205490508181101561206e576040517f08c379a000000000000000000000000000000000000000000000000000000000815260040161206590613327565b60405180910390fd5b8181036000808673ffffffffffffffffffffffffffffffffffffffff1673ffffffffffffffffffffffffffffffffffffffff16815260200190815260200160002081905550816000808573ffffffffffffffffffffffffffffffffffffffff1673ffffffffffffffffffffffffffffffffffffffff16815260200190815260200160002060008282546121019190613585565b925050819055508273ffffffffffffffffffffffffffffffffffffffff168473ffffffffffffffffffffffffffffffffffffffff167fddf252ad1be2c89b69c2b068fc378daa952ba7f163c4a11628f55a4df523b3ef846040516121659190613467565b60405180910390a3612178848484612516565b50505050565b6000600960003373ffffffffffffffffffffffffffffffffffffffff1673ffffffffffffffffffffffffffffffffffffffff168152602001908152602001600020541415612201576040517f08c379a00000000000000000000000000000000000000000000000000000000081526004016121f8906132e7565b60405180910390fd5b6001600a60008282546122149190613666565b925050819055506000600960003373ffffffffffffffffffffffffffffffffffffffff1673ffffffffffffffffffffffffffffffffffffffff16815260200190815260200160002081905550565b6000600560009054906101000a900473ffffffffffffffffffffffffffffffffffffffff16905081600560006101000a81548173ffffffffffffffffffffffffffffffffffffffff021916908373ffffffffffffffffffffffffffffffffffffffff1602179055508173ffffffffffffffffffffffffffffffffffffffff168173ffffffffffffffffffffffffffffffffffffffff167f8be0079c531659141344cd1fd0a4f28419497f9722a3daafe3b4186f6b6457e060405160405180910390a35050565b600080600960003373ffffffffffffffffffffffffffffffffffffffff1673ffffffffffffffffffffffffffffffffffffffff16815260200190815260200160002054146123ab576040517f08c379a00000000000000000000000000000000000000000000000000000000081526004016123a290613347565b60405180910390fd5b6001600a60008282546123be9190613585565b9250508190555042336040516020016123d89291906130f8565b6040516020818303038152906040528051906020012060001c600960003373ffffffffffffffffffffffffffffffffffffffff1673ffffffffffffffffffffffffffffffffffffffff168152602001908152602001600020819055507fc400aa2ca09937687bd53f1028c4539c00b9014dd3fd0f8f49c27c8727fb1ebf33600960003373ffffffffffffffffffffffffffffffffffffffff1673ffffffffffffffffffffffffffffffffffffffff168152602001908152602001600020546040516124a492919061313f565b60405180910390a1600960003373ffffffffffffffffffffffffffffffffffffffff1673ffffffffffffffffffffffffffffffffffffffff16815260200190815260200160002054905090565b61250e33670de0b6b3a764000083612509919061360c565b61251b565b50565b505050565b505050565b600073ffffffffffffffffffffffffffffffffffffffff168273ffffffffffffffffffffffffffffffffffffffff16141561258b576040517f08c379a0000000000000000000000000000000000000000000000000000000008152600401612582906133a7565b60405180910390fd5b61259782600083612511565b60008060008473ffffffffffffffffffffffffffffffffffffffff1673ffffffffffffffffffffffffffffffffffffffff1681526020019081526020016000205490508181101561261d576040517f08c379a000000000000000000000000000000000000000000000000000000000815260040161261490613287565b60405180910390fd5b8181036000808573ffffffffffffffffffffffffffffffffffffffff1673ffffffffffffffffffffffffffffffffffffffff1681526020019081526020016000208190555081600260008282546126749190613666565b92505081905550600073ffffffffffffffffffffffffffffffffffffffff168373ffffffffffffffffffffffffffffffffffffffff167fddf252ad1be2c89b69c2b068fc378daa952ba7f163c4a11628f55a4df523b3ef846040516126d99190613467565b60405180910390a36126ed83600084612516565b505050565b8280546126fe90613743565b90600052602060002090601f0160209004810192826127205760008555612767565b82601f1061273957805160ff1916838001178555612767565b82800160010185558215612767579182015b8281111561276657825182559160200191906001019061274b565b5b5090506127749190612778565b5090565b5b80821115612791576000816000905550600101612779565b5090565b60006127a86127a38461352e565b6134fd565b9050828152602081018484840111156127c057600080fd5b6127cb848285613701565b509392505050565b6000813590506127e2816138c6565b92915050565b6000813590506127f7816138dd565b92915050565b600082601f83011261280e57600080fd5b813561281e848260208601612795565b91505092915050565b600081359050612836816138f4565b92915050565b60006020828403121561284e57600080fd5b600061285c848285016127d3565b91505092915050565b60006020828403121561287757600080fd5b6000612885848285016127e8565b91505092915050565b600080604083850312156128a157600080fd5b60006128af858286016127d3565b92505060206128c0858286016127d3565b9150509250929050565b6000806000606084860312156128df57600080fd5b60006128ed868287016127d3565b93505060206128fe868287016127d3565b925050604061290f86828701612827565b9150509250925092565b6000806040838503121561292c57600080fd5b600061293a858286016127d3565b925050602061294b85828601612827565b9150509250929050565b6000806000806080858703121561296b57600080fd5b600085013567ffffffffffffffff81111561298557600080fd5b612991878288016127fd565b945050602085013567ffffffffffffffff8111156129ae57600080fd5b6129ba878288016127fd565b93505060406129cb878288016127d3565b92505060606129dc87828801612827565b91505092959194509250565b6000602082840312156129fa57600080fd5b6000612a0884828501612827565b91505092915050565b60008060408385031215612a2457600080fd5b6000612a3285828601612827565b9250506020612a4385828601612827565b9150509250929050565b612a568161369a565b82525050565b612a6d612a688261369a565b6137be565b82525050565b612a7c816136be565b82525050565b6000612a8d8261355e565b612a978185613569565b9350612aa7818560208601613710565b612ab0816138a8565b840191505092915050565b6000612ac68261355e565b612ad0818561357a565b9350612ae0818560208601613710565b80840191505092915050565b6000612af9602383613569565b91507f45524332303a207472616e7366657220746f20746865207a65726f206164647260008301527f65737300000000000000000000000000000000000000000000000000000000006020830152604082019050919050565b6000612b5f602283613569565b91507f45524332303a206275726e20616d6f756e7420657863656564732062616c616e60008301527f63650000000000000000000000000000000000000000000000000000000000006020830152604082019050919050565b6000612bc5602683613569565b91507f4f776e61626c653a206e6577206f776e657220697320746865207a65726f206160008301527f64647265737300000000000000000000000000000000000000000000000000006020830152604082019050919050565b6000612c2b602283613569565b91507f45524332303a20617070726f766520746f20746865207a65726f20616464726560008301527f73730000000000000000000000000000000000000000000000000000000000006020830152604082019050919050565b6000612c91602183613569565b91507f596f7520686176656e27742073746172746564206472696e6b696e672079657460008301527f2e000000000000000000000000000000000000000000000000000000000000006020830152604082019050919050565b6000612cf7601d83613569565b91507f45524332303a20696e73756666696369656e7420616c6c6f77616e63650000006000830152602082019050919050565b6000612d37602683613569565b91507f45524332303a207472616e7366657220616d6f756e742065786365656473206260008301527f616c616e636500000000000000000000000000000000000000000000000000006020830152604082019050919050565b6000612d9d601983613569565b91507f596f752061726520616c7265616479206472696e6b696e672e000000000000006000830152602082019050919050565b6000612ddd602b83613569565b91507f496e73756666696369656e7420616d6f756e74206f6620484f555220746f6b6560008301527f6e7320746f206275726e2e0000000000000000000000000000000000000000006020830152604082019050919050565b6000612e43602083613569565b91507f4f776e61626c653a2063616c6c6572206973206e6f7420746865206f776e65726000830152602082019050919050565b6000612e83602183613569565b91507f45524332303a206275726e2066726f6d20746865207a65726f2061646472657360008301527f73000000000000000000000000000000000000000000000000000000000000006020830152604082019050919050565b6000612ee9602583613569565b91507f45524332303a207472616e736665722066726f6d20746865207a65726f20616460008301527f64726573730000000000000000000000000000000000000000000000000000006020830152604082019050919050565b6000612f4f602483613569565b91507f45524332303a20617070726f76652066726f6d20746865207a65726f2061646460008301527f72657373000000000000000000000000000000000000000000000000000000006020830152604082019050919050565b6000612fb5601783613569565b91507f496e76616c696420486170707920486f7572204665652e0000000000000000006000830152602082019050919050565b6000612ff5602583613569565b91507f45524332303a2064656372656173656420616c6c6f77616e63652062656c6f7760008301527f207a65726f0000000000000000000000000000000000000000000000000000006020830152604082019050919050565b600061305b601f83613569565b91507f45524332303a206d696e7420746f20746865207a65726f2061646472657373006000830152602082019050919050565b613097816136ea565b82525050565b6130ae6130a9826136ea565b6137e2565b82525050565b6130bd816136f4565b82525050565b60006130cf8286612abb565b91506130db8285612abb565b91506130e78284612a5c565b601482019150819050949350505050565b6000613104828561309d565b6020820191506131148284612a5c565b6014820191508190509392505050565b60006020820190506131396000830184612a4d565b92915050565b60006040820190506131546000830185612a4d565b613161602083018461308e565b9392505050565b600060208201905061317d6000830184612a73565b92915050565b6000602082019050818103600083015261319d8184612a82565b905092915050565b600060a08201905081810360008301526131bf8188612a82565b905081810360208301526131d38187612a82565b90506131e26040830186612a4d565b6131ef606083018561308e565b6131fc608083018461308e565b9695505050505050565b600060a08201905081810360008301526132208188612a82565b905081810360208301526132348187612a82565b9050613243604083018661308e565b613250606083018561308e565b61325d608083018461308e565b9695505050505050565b6000602082019050818103600083015261328081612aec565b9050919050565b600060208201905081810360008301526132a081612b52565b9050919050565b600060208201905081810360008301526132c081612bb8565b9050919050565b600060208201905081810360008301526132e081612c1e565b9050919050565b6000602082019050818103600083015261330081612c84565b9050919050565b6000602082019050818103600083015261332081612cea565b9050919050565b6000602082019050818103600083015261334081612d2a565b9050919050565b6000602082019050818103600083015261336081612d90565b9050919050565b6000602082019050818103600083015261338081612dd0565b9050919050565b600060208201905081810360008301526133a081612e36565b9050919050565b600060208201905081810360008301526133c081612e76565b9050919050565b600060208201905081810360008301526133e081612edc565b9050919050565b6000602082019050818103600083015261340081612f42565b9050919050565b6000602082019050818103600083015261342081612fa8565b9050919050565b6000602082019050818103600083015261344081612fe8565b9050919050565b600060208201905081810360008301526134608161304e565b9050919050565b600060208201905061347c600083018461308e565b92915050565b6000604082019050613497600083018561308e565b6134a4602083018461308e565b9392505050565b60006060820190506134c0600083018661308e565b6134cd602083018561308e565b6134da604083018461308e565b949350505050565b60006020820190506134f760008301846130b4565b92915050565b6000604051905081810181811067ffffffffffffffff8211171561352457613523613879565b5b8060405250919050565b600067ffffffffffffffff82111561354957613548613879565b5b601f19601f8301169050602081019050919050565b600081519050919050565b600082825260208201905092915050565b600081905092915050565b6000613590826136ea565b915061359b836136ea565b9250827fffffffffffffffffffffffffffffffffffffffffffffffffffffffffffffffff038211156135d0576135cf6137ec565b5b828201905092915050565b60006135e6826136ea565b91506135f1836136ea565b9250826136015761360061381b565b5b828204905092915050565b6000613617826136ea565b9150613622836136ea565b9250817fffffffffffffffffffffffffffffffffffffffffffffffffffffffffffffffff048311821515161561365b5761365a6137ec565b5b828202905092915050565b6000613671826136ea565b915061367c836136ea565b92508282101561368f5761368e6137ec565b5b828203905092915050565b60006136a5826136ca565b9050919050565b60006136b7826136ca565b9050919050565b60008115159050919050565b600073ffffffffffffffffffffffffffffffffffffffff82169050919050565b6000819050919050565b600060ff82169050919050565b82818337600083830152505050565b60005b8381101561372e578082015181840152602081019050613713565b8381111561373d576000848401525b50505050565b6000600282049050600182168061375b57607f821691505b6020821081141561376f5761376e61384a565b5b50919050565b6000613780826136ea565b91507fffffffffffffffffffffffffffffffffffffffffffffffffffffffffffffffff8214156137b3576137b26137ec565b5b600182019050919050565b60006137c9826137d0565b9050919050565b60006137db826138b9565b9050919050565b6000819050919050565b7f4e487b7100000000000000000000000000000000000000000000000000000000600052601160045260246000fd5b7f4e487b7100000000000000000000000000000000000000000000000000000000600052601260045260246000fd5b7f4e487b7100000000000000000000000000000000000000000000000000000000600052602260045260246000fd5b7f4e487b7100000000000000000000000000000000000000000000000000000000600052604160045260246000fd5b6000601f19601f8301169050919050565b60008160601b9050919050565b6138cf8161369a565b81146138da57600080fd5b50565b6138e6816136ac565b81146138f157600080fd5b50565b6138fd816136ea565b811461390857600080fd5b5056fea26469706673582212201f9bdd26edbb50577bfd6a8776a342d6bb402558cc49cf197d6db97aea11969964736f6c63430008000033",
  "immutableReferences": {},
  "source": "/* SPDX-License-Identifier: UNLICENSED */\r\n\r\npragma solidity ^0.8.0;\r\n\r\n/* import 'https://github.com/OpenZeppelin/openzeppelin-contracts/blob/master/contracts/token/ERC20/ERC20.sol';\r\nimport 'https://github.com/OpenZeppelin/openzeppelin-contracts/blob/master/contracts/access/Ownable.sol'; */\r\n\r\nimport '@openzeppelin/contracts/token/ERC20/ERC20.sol';\r\nimport '@openzeppelin/contracts/access/Ownable.sol';\r\n\r\n/* For whitelisting, if implemented. */\r\n\r\ncontract WhitelistID {\r\n\r\n    mapping(address => uint256) public whitelistID;\r\n    address[] public whiteListers;\r\n    uint256 idcounter;\r\n\r\n    event createdId(address user, uint256 id);\r\n\r\n    function giveWhitelistId() internal returns (uint256)  { \r\n        require(whitelistID[msg.sender]==0, \"You are already whitelisted.\");\r\n        idcounter += 1;\r\n        whiteListers.push(msg.sender);\r\n        whitelistID[msg.sender] = idcounter;\r\n        emit createdId(msg.sender,idcounter);\r\n        return idcounter;\r\n    }\r\n\r\n}\r\n\r\n/* Each Drinker is designated an ID in order to keep track of current hours accumulated per Drinker during 1 session. */\r\n\r\ncontract poolDrinkingID {\r\n\r\n    mapping(address => uint256) public drinkingID;\r\n    uint256 drinkingIDcounter;\r\n\r\n    event createdDrinkingID(address user, uint256 id);\r\n\r\n    function givePoolDrinkingId() internal returns (uint256)  { \r\n        require(drinkingID[msg.sender]==0, \"You are already drinking.\");\r\n        drinkingIDcounter += 1;\r\n        drinkingID[msg.sender] = uint(keccak256(abi.encodePacked(block.timestamp, msg.sender)));\r\n        emit createdDrinkingID(msg.sender,drinkingID[msg.sender]);\r\n        return drinkingID[msg.sender];\r\n    }\r\n\r\n    function nullPoolDrinkingId() internal {\r\n        require(drinkingID[msg.sender] != 0, \"You haven't started drinking yet.\");\r\n        drinkingIDcounter -= 1;\r\n        drinkingID[msg.sender] = 0;\r\n    }\r\n\r\n    function getPoolDrinkingId() public view returns(uint256) {\r\n        return drinkingID[msg.sender];\r\n    }\r\n\r\n    function getNumberOfCurrentDrinkers() public view returns(uint) {\r\n        return drinkingIDcounter;\r\n    }\r\n}\r\n\r\n/* $DRNK governance token contract */\r\n\r\ncontract DRNKgovernance is ERC20, Ownable {\r\n\r\n    address public _admin;\r\n\r\n    constructor() ERC20('Drunk Governance Token', 'DRNK') {\r\n        _mint(msg.sender, 1 * (10 ** 18));\r\n        _admin = msg.sender;\r\n    }\r\n\r\n    function mintDRNK(address to, uint amount) external {\r\n        _mint(to, amount);\r\n    }\r\n\r\n    function burnDRNK(uint amount) external {\r\n        _burn(msg.sender, amount * (10 ** 18));\r\n    }\r\n\r\n}\r\n\r\ninterface IDRNKtoken {\r\n    function mintDRNK(address to, uint amount) external;\r\n}\r\n\r\n/* Main Happy Hour Protocol v2 Engine Contract */\r\n\r\ncontract HappyHourProtocolv2 is ERC20, Ownable, WhitelistID, poolDrinkingID {\r\n\r\n    uint happyHourFee = 1;\r\n    uint happyHourFeePool;\r\n    uint timeIN;\r\n    uint timeOUT;\r\n    uint hoursSpentDrinking;\r\n    uint HOUR2DRNKburnMinimum = 2000 * (10 ** 18);\r\n    uint secretCodeWhitelist = 989;\r\n    uint PDEcommissionRate = 10;\r\n    uint HOURperhour = 100;\r\n\r\n    event endHOURresults(uint hoursSpentDrinking, uint HOURearned, uint PDEcommissionEarned);\r\n    event newPDEonboarded(string _name, string _location, address indexed _address, uint _PDEid, uint PDEindexNum, uint accessCode);\r\n    event newDRNKminted(uint HOURburned, uint DRNKminted);\r\n\r\n    address public _admin;\r\n\r\n    struct PDE {\r\n        string _name;\r\n        string _location;\r\n        address _address;\r\n        uint _accessCode;\r\n        uint _PDEid;\r\n    }\r\n\r\n    PDE[] public pdes;\r\n\r\n    mapping (uint => address) public PDEtoOwner;\r\n    mapping (uint => uint) public drinkingIDtoPDEid;\r\n\r\n    /* Initializing the HappyHourProtocolv2 contract */\r\n\r\n    constructor() ERC20('Happy Hour v2', 'HOUR') {\r\n        _mint(msg.sender, 1 * (10 ** 18));\r\n        _admin = msg.sender;\r\n    }\r\n\r\n    /* Public onboarding function for PDE. Name, Location, ETH address, and a temporary Access Code are required. */\r\n\r\n    function onboardPDE(string memory _name, string memory _location, address _address, uint _accessCode) public {\r\n        uint PDEid = uint(keccak256(abi.encodePacked(_name, _location, _address)));\r\n        pdes.push(PDE(_name, _location, _address, _accessCode, PDEid));\r\n        uint PDEindexNum = pdes.length - 1;\r\n        PDEtoOwner[PDEindexNum] = msg.sender;\r\n        emit newPDEonboarded(_name, _location, _address, PDEid, PDEindexNum, _accessCode);\r\n    }\r\n\r\n    /* Enables PDEs to change their Access Code anytime */\r\n\r\n    function _changeAccessCode(uint _PDEindexNum, uint _newAccessCode) public {\r\n        require(PDEtoOwner[_PDEindexNum] == msg.sender);\r\n        pdes[_PDEindexNum]._accessCode = _newAccessCode;\r\n    }\r\n\r\n    /* Contract owner may adjust HOUR burn minimum */\r\n\r\n    function setHOUR2DRNKburnMinimum(uint _burnMinimum) external onlyOwner {\r\n        HOUR2DRNKburnMinimum = _burnMinimum * (10 ** 18);\r\n    }\r\n\r\n    /* $DRNK mint function. Requires inputting DRNK governance token contract, ETH address, and a minimum $HOUR to burn. */\r\n\r\n    function mintyDRNK(address _DRNKaddress, address to, uint _burnAmount) public {\r\n        require((_burnAmount * (10 ** 18)) >= HOUR2DRNKburnMinimum, \"Insufficient amount of HOUR tokens to burn.\");\r\n        uint DRNKneeded2mint = (_burnAmount * (10 ** 18)) / 10;\r\n        uint mintedDRNKemit = DRNKneeded2mint / (10 ** 18);\r\n        burnHOUR(_burnAmount);\r\n        IDRNKtoken(_DRNKaddress).mintDRNK(to, DRNKneeded2mint);\r\n        emit newDRNKminted(_burnAmount, mintedDRNKemit);\r\n    }\r\n\r\n    /* mintHOUR and burnHOUR functions will not be public */\r\n\r\n    function mintHOUR(address to, uint amount) external onlyOwner {\r\n        _mint(to, amount * (10 ** 18));\r\n    }\r\n\r\n    function burnHOUR(uint amount) internal {\r\n        _burn(msg.sender, amount * (10 ** 18));\r\n    }\r\n\r\n    /* Whitelisting will not be available. */\r\n\r\n    function adjustsecretCodeWhitelist(uint _newSecretCode) external onlyOwner {\r\n        secretCodeWhitelist = _newSecretCode;\r\n    }\r\n\r\n    function whitelist(address _whitelister, uint _secretCode) private {\r\n        require(_secretCode == secretCodeWhitelist, \"Invalid secret code.\");\r\n        giveWhitelistId();\r\n        _approve(_admin, _whitelister, 100);\r\n        transferFrom(_admin, _whitelister, 100);\r\n    }\r\n\r\n    /* Drinkers need to stake a minimum happy hour fee in order to start earning $HOUR. Minimum happy hour fee may be adjusted. */\r\n\r\n    function setHappyHourFee(uint _fee) external onlyOwner {\r\n        happyHourFee = _fee;\r\n    }\r\n\r\n    /* Start earning $HOUR function. Requires a minimum happy hour fee stake, the PDE's PDEid and its Access Code. */\r\n\r\n    function startHOUR(uint _PDEid, uint _accessCode) public payable {\r\n\r\n        uint validPDE;\r\n\r\n        for (uint i = 0; i < pdes.length; i++) {\r\n            if (pdes[i]._PDEid == _PDEid && pdes[i]._accessCode == _accessCode) {\r\n                validPDE = 1;\r\n            } else {\r\n                validPDE = 0;\r\n            }\r\n        }\r\n\r\n        require(validPDE == 1);\r\n        require(msg.value == happyHourFee * (10 ** 16), \"Invalid Happy Hour Fee.\");\r\n        givePoolDrinkingId();\r\n        drinkingIDtoPDEid[drinkingID[msg.sender]] = _PDEid;\r\n        happyHourFeePool += 1;\r\n        timeIN = block.timestamp;\r\n    }\r\n\r\n    /* Getter function to view ETH amount staked in current happy hour fee pool. */\r\n\r\n    function gethappyHourFeePool() public view returns (uint) {\r\n        return happyHourFeePool;\r\n    }\r\n\r\n    /* Function to stop earning $HOUR */\r\n\r\n    function endHOUR(address payable wiped) public {\r\n\r\n        address PDEcommission;\r\n        require(msg.sender == wiped);\r\n        timeOUT = block.timestamp;\r\n\r\n        for (uint i = 0; i < pdes.length; i++) {\r\n            if (pdes[i]._PDEid == drinkingIDtoPDEid[drinkingID[msg.sender]]) {\r\n                PDEcommission = pdes[i]._address;\r\n            }\r\n        }\r\n\r\n        nullPoolDrinkingId();\r\n        happyHourFeePool -= 1;\r\n        wiped.transfer(happyHourFee * (10 ** 16));\r\n        hoursSpentDrinking = (timeOUT - timeIN) / 60 / 60;\r\n        uint HOURearned = hoursSpentDrinking * (HOURperhour * (10 ** 18));\r\n        uint PDEcommissionEarned = HOURearned / PDEcommissionRate;\r\n        _mint(wiped, HOURearned);\r\n        _mint(PDEcommission, PDEcommissionEarned);\r\n        emit endHOURresults(hoursSpentDrinking, HOURearned, PDEcommissionEarned);\r\n    }\r\n\r\n    /* Adjustable earned $HOUR/hour rate */\r\n\r\n    function adjustHOURperhourRate(uint _newRate) external onlyOwner {\r\n        HOURperhour = _newRate;\r\n    }\r\n\r\n    receive() external payable {}\r\n\r\n}\r\n\r\n\r\n",
  "sourcePath": "C:\\Users\\choysauce\\documents\\python\\solidity\\truffle-test-1\\contracts\\HOURv2.sol",
  "compiler": {
    "name": "solc",
    "version": "0.8.0+commit.c7dfd78e.Emscripten.clang"
  },
  "schemaVersion": "3.4.7",
  "updatedAt": "2022-07-02T06:08:39.048Z",
  "networkType": "ethereum",
  "devdoc": {
    "kind": "dev",
    "methods": {
      "allowance(address,address)": {
        "details": "See {IERC20-allowance}."
      },
      "approve(address,uint256)": {
        "details": "See {IERC20-approve}. NOTE: If `amount` is the maximum `uint256`, the allowance is not updated on `transferFrom`. This is semantically equivalent to an infinite approval. Requirements: - `spender` cannot be the zero address."
      },
      "balanceOf(address)": {
        "details": "See {IERC20-balanceOf}."
      },
      "decimals()": {
        "details": "Returns the number of decimals used to get its user representation. For example, if `decimals` equals `2`, a balance of `505` tokens should be displayed to a user as `5.05` (`505 / 10 ** 2`). Tokens usually opt for a value of 18, imitating the relationship between Ether and Wei. This is the value {ERC20} uses, unless this function is overridden; NOTE: This information is only used for _display_ purposes: it in no way affects any of the arithmetic of the contract, including {IERC20-balanceOf} and {IERC20-transfer}."
      },
      "decreaseAllowance(address,uint256)": {
        "details": "Atomically decreases the allowance granted to `spender` by the caller. This is an alternative to {approve} that can be used as a mitigation for problems described in {IERC20-approve}. Emits an {Approval} event indicating the updated allowance. Requirements: - `spender` cannot be the zero address. - `spender` must have allowance for the caller of at least `subtractedValue`."
      },
      "increaseAllowance(address,uint256)": {
        "details": "Atomically increases the allowance granted to `spender` by the caller. This is an alternative to {approve} that can be used as a mitigation for problems described in {IERC20-approve}. Emits an {Approval} event indicating the updated allowance. Requirements: - `spender` cannot be the zero address."
      },
      "name()": {
        "details": "Returns the name of the token."
      },
      "owner()": {
        "details": "Returns the address of the current owner."
      },
      "renounceOwnership()": {
        "details": "Leaves the contract without owner. It will not be possible to call `onlyOwner` functions anymore. Can only be called by the current owner. NOTE: Renouncing ownership will leave the contract without an owner, thereby removing any functionality that is only available to the owner."
      },
      "symbol()": {
        "details": "Returns the symbol of the token, usually a shorter version of the name."
      },
      "totalSupply()": {
        "details": "See {IERC20-totalSupply}."
      },
      "transfer(address,uint256)": {
        "details": "See {IERC20-transfer}. Requirements: - `to` cannot be the zero address. - the caller must have a balance of at least `amount`."
      },
      "transferFrom(address,address,uint256)": {
        "details": "See {IERC20-transferFrom}. Emits an {Approval} event indicating the updated allowance. This is not required by the EIP. See the note at the beginning of {ERC20}. NOTE: Does not update the allowance if the current allowance is the maximum `uint256`. Requirements: - `from` and `to` cannot be the zero address. - `from` must have a balance of at least `amount`. - the caller must have allowance for ``from``'s tokens of at least `amount`."
      },
      "transferOwnership(address)": {
        "details": "Transfers ownership of the contract to a new account (`newOwner`). Can only be called by the current owner."
      }
    },
    "version": 1
  },
  "userdoc": {
    "kind": "user",
    "methods": {},
    "version": 1
  }
}