{
  "contractName": "HappyHourProtocolv3",
  "abi": [
    {
      "inputs": [],
      "stateMutability": "nonpayable",
      "type": "constructor"
    },
    {
      "anonymous": false,
      "inputs": [
        {
          "indexed": true,
          "internalType": "address",
          "name": "owner",
          "type": "address"
        },
        {
          "indexed": true,
          "internalType": "address",
          "name": "spender",
          "type": "address"
        },
        {
          "indexed": false,
          "internalType": "uint256",
          "name": "value",
          "type": "uint256"
        }
      ],
      "name": "Approval",
      "type": "event"
    },
    {
      "anonymous": false,
      "inputs": [
        {
          "indexed": true,
          "internalType": "address",
          "name": "previousOwner",
          "type": "address"
        },
        {
          "indexed": true,
          "internalType": "address",
          "name": "newOwner",
          "type": "address"
        }
      ],
      "name": "OwnershipTransferred",
      "type": "event"
    },
    {
      "anonymous": false,
      "inputs": [
        {
          "indexed": true,
          "internalType": "address",
          "name": "from",
          "type": "address"
        },
        {
          "indexed": true,
          "internalType": "address",
          "name": "to",
          "type": "address"
        },
        {
          "indexed": false,
          "internalType": "uint256",
          "name": "value",
          "type": "uint256"
        }
      ],
      "name": "Transfer",
      "type": "event"
    },
    {
      "anonymous": false,
      "inputs": [
        {
          "indexed": false,
          "internalType": "address",
          "name": "user",
          "type": "address"
        },
        {
          "indexed": false,
          "internalType": "uint256",
          "name": "id",
          "type": "uint256"
        }
      ],
      "name": "createdDrinkingID",
      "type": "event"
    },
    {
      "anonymous": false,
      "inputs": [
        {
          "indexed": false,
          "internalType": "uint256",
          "name": "hoursSpentDrinking",
          "type": "uint256"
        },
        {
          "indexed": false,
          "internalType": "uint256",
          "name": "HOURearned",
          "type": "uint256"
        },
        {
          "indexed": false,
          "internalType": "uint256",
          "name": "PDEcommissionEarned",
          "type": "uint256"
        }
      ],
      "name": "endHOURresults",
      "type": "event"
    },
    {
      "anonymous": false,
      "inputs": [
        {
          "indexed": false,
          "internalType": "uint256",
          "name": "HOURburned",
          "type": "uint256"
        },
        {
          "indexed": false,
          "internalType": "uint256",
          "name": "DRNKminted",
          "type": "uint256"
        }
      ],
      "name": "newDRNKminted",
      "type": "event"
    },
    {
      "anonymous": false,
      "inputs": [
        {
          "indexed": false,
          "internalType": "string",
          "name": "_name",
          "type": "string"
        },
        {
          "indexed": false,
          "internalType": "string",
          "name": "_location",
          "type": "string"
        },
        {
          "indexed": false,
          "internalType": "address",
          "name": "_address",
          "type": "address"
        },
        {
          "indexed": false,
          "internalType": "uint256",
          "name": "_PDEid",
          "type": "uint256"
        },
        {
          "indexed": false,
          "internalType": "uint256",
          "name": "PDEindexNum",
          "type": "uint256"
        },
        {
          "indexed": false,
          "internalType": "uint256",
          "name": "accessCode",
          "type": "uint256"
        }
      ],
      "name": "newPDEonboarded",
      "type": "event"
    },
    {
      "inputs": [
        {
          "internalType": "uint256",
          "name": "",
          "type": "uint256"
        }
      ],
      "name": "PDEtoOwner",
      "outputs": [
        {
          "internalType": "address",
          "name": "",
          "type": "address"
        }
      ],
      "stateMutability": "view",
      "type": "function",
      "constant": true
    },
    {
      "inputs": [],
      "name": "_admin",
      "outputs": [
        {
          "internalType": "address",
          "name": "",
          "type": "address"
        }
      ],
      "stateMutability": "view",
      "type": "function",
      "constant": true
    },
    {
      "inputs": [
        {
          "internalType": "address",
          "name": "owner",
          "type": "address"
        },
        {
          "internalType": "address",
          "name": "spender",
          "type": "address"
        }
      ],
      "name": "allowance",
      "outputs": [
        {
          "internalType": "uint256",
          "name": "",
          "type": "uint256"
        }
      ],
      "stateMutability": "view",
      "type": "function",
      "constant": true
    },
    {
      "inputs": [
        {
          "internalType": "address",
          "name": "spender",
          "type": "address"
        },
        {
          "internalType": "uint256",
          "name": "amount",
          "type": "uint256"
        }
      ],
      "name": "approve",
      "outputs": [
        {
          "internalType": "bool",
          "name": "",
          "type": "bool"
        }
      ],
      "stateMutability": "nonpayable",
      "type": "function"
    },
    {
      "inputs": [
        {
          "internalType": "address",
          "name": "account",
          "type": "address"
        }
      ],
      "name": "balanceOf",
      "outputs": [
        {
          "internalType": "uint256",
          "name": "",
          "type": "uint256"
        }
      ],
      "stateMutability": "view",
      "type": "function",
      "constant": true
    },
    {
      "inputs": [],
      "name": "decimals",
      "outputs": [
        {
          "internalType": "uint8",
          "name": "",
          "type": "uint8"
        }
      ],
      "stateMutability": "view",
      "type": "function",
      "constant": true
    },
    {
      "inputs": [
        {
          "internalType": "address",
          "name": "spender",
          "type": "address"
        },
        {
          "internalType": "uint256",
          "name": "subtractedValue",
          "type": "uint256"
        }
      ],
      "name": "decreaseAllowance",
      "outputs": [
        {
          "internalType": "bool",
          "name": "",
          "type": "bool"
        }
      ],
      "stateMutability": "nonpayable",
      "type": "function"
    },
    {
      "inputs": [
        {
          "internalType": "address",
          "name": "",
          "type": "address"
        }
      ],
      "name": "drinkingID",
      "outputs": [
        {
          "internalType": "uint256",
          "name": "",
          "type": "uint256"
        }
      ],
      "stateMutability": "view",
      "type": "function",
      "constant": true
    },
    {
      "inputs": [
        {
          "internalType": "uint256",
          "name": "",
          "type": "uint256"
        }
      ],
      "name": "drinkingIDtoPDEid",
      "outputs": [
        {
          "internalType": "uint256",
          "name": "",
          "type": "uint256"
        }
      ],
      "stateMutability": "view",
      "type": "function",
      "constant": true
    },
    {
      "inputs": [
        {
          "internalType": "address",
          "name": "spender",
          "type": "address"
        },
        {
          "internalType": "uint256",
          "name": "addedValue",
          "type": "uint256"
        }
      ],
      "name": "increaseAllowance",
      "outputs": [
        {
          "internalType": "bool",
          "name": "",
          "type": "bool"
        }
      ],
      "stateMutability": "nonpayable",
      "type": "function"
    },
    {
      "inputs": [],
      "name": "name",
      "outputs": [
        {
          "internalType": "string",
          "name": "",
          "type": "string"
        }
      ],
      "stateMutability": "view",
      "type": "function",
      "constant": true
    },
    {
      "inputs": [],
      "name": "owner",
      "outputs": [
        {
          "internalType": "address",
          "name": "",
          "type": "address"
        }
      ],
      "stateMutability": "view",
      "type": "function",
      "constant": true
    },
    {
      "inputs": [
        {
          "internalType": "uint256",
          "name": "",
          "type": "uint256"
        }
      ],
      "name": "pdes",
      "outputs": [
        {
          "internalType": "string",
          "name": "_name",
          "type": "string"
        },
        {
          "internalType": "string",
          "name": "_location",
          "type": "string"
        },
        {
          "internalType": "address",
          "name": "_address",
          "type": "address"
        },
        {
          "internalType": "uint256",
          "name": "_accessCode",
          "type": "uint256"
        },
        {
          "internalType": "uint256",
          "name": "_PDEid",
          "type": "uint256"
        }
      ],
      "stateMutability": "view",
      "type": "function",
      "constant": true
    },
    {
      "inputs": [],
      "name": "renounceOwnership",
      "outputs": [],
      "stateMutability": "nonpayable",
      "type": "function"
    },
    {
      "inputs": [],
      "name": "symbol",
      "outputs": [
        {
          "internalType": "string",
          "name": "",
          "type": "string"
        }
      ],
      "stateMutability": "view",
      "type": "function",
      "constant": true
    },
    {
      "inputs": [],
      "name": "totalSupply",
      "outputs": [
        {
          "internalType": "uint256",
          "name": "",
          "type": "uint256"
        }
      ],
      "stateMutability": "view",
      "type": "function",
      "constant": true
    },
    {
      "inputs": [
        {
          "internalType": "address",
          "name": "to",
          "type": "address"
        },
        {
          "internalType": "uint256",
          "name": "amount",
          "type": "uint256"
        }
      ],
      "name": "transfer",
      "outputs": [
        {
          "internalType": "bool",
          "name": "",
          "type": "bool"
        }
      ],
      "stateMutability": "nonpayable",
      "type": "function"
    },
    {
      "inputs": [
        {
          "internalType": "address",
          "name": "from",
          "type": "address"
        },
        {
          "internalType": "address",
          "name": "to",
          "type": "address"
        },
        {
          "internalType": "uint256",
          "name": "amount",
          "type": "uint256"
        }
      ],
      "name": "transferFrom",
      "outputs": [
        {
          "internalType": "bool",
          "name": "",
          "type": "bool"
        }
      ],
      "stateMutability": "nonpayable",
      "type": "function"
    },
    {
      "inputs": [
        {
          "internalType": "address",
          "name": "newOwner",
          "type": "address"
        }
      ],
      "name": "transferOwnership",
      "outputs": [],
      "stateMutability": "nonpayable",
      "type": "function"
    },
    {
      "stateMutability": "payable",
      "type": "receive",
      "payable": true
    },
    {
      "inputs": [
        {
          "internalType": "string",
          "name": "_name",
          "type": "string"
        },
        {
          "internalType": "string",
          "name": "_location",
          "type": "string"
        },
        {
          "internalType": "address",
          "name": "_address",
          "type": "address"
        },
        {
          "internalType": "uint256",
          "name": "_accessCode",
          "type": "uint256"
        }
      ],
      "name": "onboardPDE",
      "outputs": [],
      "stateMutability": "nonpayable",
      "type": "function"
    },
    {
      "inputs": [
        {
          "internalType": "uint256",
          "name": "_PDEindexNum",
          "type": "uint256"
        },
        {
          "internalType": "uint256",
          "name": "_newAccessCode",
          "type": "uint256"
        }
      ],
      "name": "_changeAccessCode",
      "outputs": [],
      "stateMutability": "nonpayable",
      "type": "function"
    },
    {
      "inputs": [
        {
          "internalType": "uint256",
          "name": "_burnMinimum",
          "type": "uint256"
        }
      ],
      "name": "setHOUR2DRNKburnMinimum",
      "outputs": [],
      "stateMutability": "nonpayable",
      "type": "function"
    },
    {
      "inputs": [
        {
          "internalType": "address",
          "name": "_DRNKaddress",
          "type": "address"
        },
        {
          "internalType": "address",
          "name": "to",
          "type": "address"
        },
        {
          "internalType": "uint256",
          "name": "_burnAmount",
          "type": "uint256"
        }
      ],
      "name": "mintyDRNK",
      "outputs": [],
      "stateMutability": "nonpayable",
      "type": "function"
    },
    {
      "inputs": [
        {
          "internalType": "address",
          "name": "to",
          "type": "address"
        },
        {
          "internalType": "uint256",
          "name": "amount",
          "type": "uint256"
        }
      ],
      "name": "mintHOUR",
      "outputs": [],
      "stateMutability": "nonpayable",
      "type": "function"
    },
    {
      "inputs": [
        {
          "internalType": "uint256",
          "name": "_fee",
          "type": "uint256"
        }
      ],
      "name": "setHappyHourFee",
      "outputs": [],
      "stateMutability": "nonpayable",
      "type": "function"
    },
    {
      "inputs": [],
      "name": "getPoolDrinkingId",
      "outputs": [
        {
          "internalType": "uint256",
          "name": "",
          "type": "uint256"
        }
      ],
      "stateMutability": "view",
      "type": "function",
      "constant": true
    },
    {
      "inputs": [],
      "name": "getNumberOfCurrentDrinkers",
      "outputs": [
        {
          "internalType": "uint256",
          "name": "",
          "type": "uint256"
        }
      ],
      "stateMutability": "view",
      "type": "function",
      "constant": true
    },
    {
      "inputs": [
        {
          "internalType": "uint256",
          "name": "_PDEid",
          "type": "uint256"
        },
        {
          "internalType": "uint256",
          "name": "_accessCode",
          "type": "uint256"
        }
      ],
      "name": "startHOUR",
      "outputs": [],
      "stateMutability": "payable",
      "type": "function",
      "payable": true
    },
    {
      "inputs": [],
      "name": "gethappyHourFeePool",
      "outputs": [
        {
          "internalType": "uint256",
          "name": "",
          "type": "uint256"
        }
      ],
      "stateMutability": "view",
      "type": "function",
      "constant": true
    },
    {
      "inputs": [
        {
          "internalType": "address payable",
          "name": "wiped",
          "type": "address"
        }
      ],
      "name": "endHOUR",
      "outputs": [],
      "stateMutability": "nonpayable",
      "type": "function"
    },
    {
      "inputs": [
        {
          "internalType": "uint256",
          "name": "_newRate",
          "type": "uint256"
        }
      ],
      "name": "adjustHOURperhourRate",
      "outputs": [],
      "stateMutability": "nonpayable",
      "type": "function"
    }
  ],
  "bytecode": "0x60806040526001600655686c6b935b8bbd400000600b55600a600c556064600d553480156200002d57600080fd5b506040518060400160405280601381526020017f486170707920486f757220546f6b656e207633000000000000000000000000008152506040518060400160405280600481526020017f484f5552000000000000000000000000000000000000000000000000000000008152508160039080519060200190620000b292919062000394565b508060049080519060200190620000cb92919062000394565b505050620000ee620000e26200014f60201b60201c565b6200015760201b60201c565b6200010833670de0b6b3a76400006200021d60201b60201c565b33600e60006101000a81548173ffffffffffffffffffffffffffffffffffffffff021916908373ffffffffffffffffffffffffffffffffffffffff160217905550620005ef565b600033905090565b6000600560009054906101000a900473ffffffffffffffffffffffffffffffffffffffff16905081600560006101000a81548173ffffffffffffffffffffffffffffffffffffffff021916908373ffffffffffffffffffffffffffffffffffffffff1602179055508173ffffffffffffffffffffffffffffffffffffffff168173ffffffffffffffffffffffffffffffffffffffff167f8be0079c531659141344cd1fd0a4f28419497f9722a3daafe3b4186f6b6457e060405160405180910390a35050565b600073ffffffffffffffffffffffffffffffffffffffff168273ffffffffffffffffffffffffffffffffffffffff16036200028f576040517f08c379a00000000000000000000000000000000000000000000000000000000081526004016200028690620004a5565b60405180910390fd5b620002a3600083836200038a60201b60201c565b8060026000828254620002b7919062000500565b92505081905550806000808473ffffffffffffffffffffffffffffffffffffffff1673ffffffffffffffffffffffffffffffffffffffff168152602001908152602001600020600082825401925050819055508173ffffffffffffffffffffffffffffffffffffffff16600073ffffffffffffffffffffffffffffffffffffffff167fddf252ad1be2c89b69c2b068fc378daa952ba7f163c4a11628f55a4df523b3ef836040516200036a91906200056e565b60405180910390a362000386600083836200038f60201b60201c565b5050565b505050565b505050565b828054620003a290620005ba565b90600052602060002090601f016020900481019282620003c6576000855562000412565b82601f10620003e157805160ff191683800117855562000412565b8280016001018555821562000412579182015b8281111562000411578251825591602001919060010190620003f4565b5b50905062000421919062000425565b5090565b5b808211156200044057600081600090555060010162000426565b5090565b600082825260208201905092915050565b7f45524332303a206d696e7420746f20746865207a65726f206164647265737300600082015250565b60006200048d601f8362000444565b91506200049a8262000455565b602082019050919050565b60006020820190508181036000830152620004c0816200047e565b9050919050565b6000819050919050565b7f4e487b7100000000000000000000000000000000000000000000000000000000600052601160045260246000fd5b60006200050d82620004c7565b91506200051a83620004c7565b9250827fffffffffffffffffffffffffffffffffffffffffffffffffffffffffffffffff03821115620005525762000551620004d1565b5b828201905092915050565b6200056881620004c7565b82525050565b60006020820190506200058560008301846200055d565b92915050565b7f4e487b7100000000000000000000000000000000000000000000000000000000600052602260045260246000fd5b60006002820490506001821680620005d357607f821691505b602082108103620005e957620005e86200058b565b5b50919050565b6136dd80620005ff6000396000f3fe6080604052600436106101dc5760003560e01c806370a08231116101025780639ac1dc4511610095578063dd62ed3e11610064578063dd62ed3e146106fa578063dd89815914610737578063f2fde38b14610760578063f546c49914610789576101e3565b80639ac1dc45146106275780639fca013214610643578063a457c2d714610680578063a9059cbb146106bd576101e3565b80638da5cb5b116100d15780638da5cb5b1461056557806395d89b411461059057806396039aa3146105bb5780639729d11e146105e6576101e3565b806370a08231146104bd578063715018a6146104fa57806375937b471461051157806375baf63f1461053c576101e3565b8063160a33941161017a578063313ce56711610149578063313ce567146103ef57806332aa8a511461041a57806339509351146104575780634638f13814610494576101e3565b8063160a33941461033557806318160ddd1461035e57806323b872dd146103895780632a3bdcf3146103c6576101e3565b806306fdde03116101b657806306fdde0314610267578063095ea7b3146102925780630d3ac8d2146102cf57806314cae0661461030c576101e3565b806301bc45c9146101e8578063067a0d4e1461021357806306c499b71461023c576101e3565b366101e357005b600080fd5b3480156101f457600080fd5b506101fd6107b2565b60405161020a919061240d565b60405180910390f35b34801561021f57600080fd5b5061023a6004803603810190610235919061249e565b6107d8565b005b34801561024857600080fd5b50610251610801565b60405161025e91906124ed565b60405180910390f35b34801561027357600080fd5b5061027c61080b565b60405161028991906125a1565b60405180910390f35b34801561029e57600080fd5b506102b960048036038101906102b4919061249e565b61089d565b6040516102c691906125de565b60405180910390f35b3480156102db57600080fd5b506102f660048036038101906102f191906125f9565b6108c0565b60405161030391906124ed565b60405180910390f35b34801561031857600080fd5b50610333600480360381019061032e9190612626565b6108d8565b005b34801561034157600080fd5b5061035c60048036038101906103579190612626565b6108ea565b005b34801561036a57600080fd5b506103736108fc565b60405161038091906124ed565b60405180910390f35b34801561039557600080fd5b506103b060048036038101906103ab9190612653565b610906565b6040516103bd91906125de565b60405180910390f35b3480156103d257600080fd5b506103ed60048036038101906103e891906127db565b610935565b005b3480156103fb57600080fd5b50610404610b17565b6040516104119190612896565b60405180910390f35b34801561042657600080fd5b50610441600480360381019061043c9190612626565b610b20565b60405161044e91906124ed565b60405180910390f35b34801561046357600080fd5b5061047e6004803603810190610479919061249e565b610b38565b60405161048b91906125de565b60405180910390f35b3480156104a057600080fd5b506104bb60048036038101906104b691906128ef565b610b6f565b005b3480156104c957600080fd5b506104e460048036038101906104df91906125f9565b610ef7565b6040516104f191906124ed565b60405180910390f35b34801561050657600080fd5b5061050f610f3f565b005b34801561051d57600080fd5b50610526610f53565b60405161053391906124ed565b60405180910390f35b34801561054857600080fd5b50610563600480360381019061055e9190612626565b610f5d565b005b34801561057157600080fd5b5061057a610f82565b604051610587919061240d565b60405180910390f35b34801561059c57600080fd5b506105a5610fac565b6040516105b291906125a1565b60405180910390f35b3480156105c757600080fd5b506105d061103e565b6040516105dd91906124ed565b60405180910390f35b3480156105f257600080fd5b5061060d60048036038101906106089190612626565b611085565b60405161061e95949392919061291c565b60405180910390f35b610641600480360381019061063c919061297d565b6111fb565b005b34801561064f57600080fd5b5061066a60048036038101906106659190612626565b611378565b604051610677919061240d565b60405180910390f35b34801561068c57600080fd5b506106a760048036038101906106a2919061249e565b6113ab565b6040516106b491906125de565b60405180910390f35b3480156106c957600080fd5b506106e460048036038101906106df919061249e565b611422565b6040516106f191906125de565b60405180910390f35b34801561070657600080fd5b50610721600480360381019061071c91906129bd565b611445565b60405161072e91906124ed565b60405180910390f35b34801561074357600080fd5b5061075e6004803603810190610759919061297d565b6114cc565b005b34801561076c57600080fd5b50610787600480360381019061078291906125f9565b611565565b005b34801561079557600080fd5b506107b060048036038101906107ab9190612653565b6115e8565b005b600e60009054906101000a900473ffffffffffffffffffffffffffffffffffffffff1681565b6107e0611719565b6107fd82670de0b6b3a7640000836107f89190612a2c565b611797565b5050565b6000600754905090565b60606003805461081a90612ab5565b80601f016020809104026020016040519081016040528092919081815260200182805461084690612ab5565b80156108935780601f1061086857610100808354040283529160200191610893565b820191906000526020600020905b81548152906001019060200180831161087657829003601f168201915b5050505050905090565b6000806108a86118ed565b90506108b58185856118f5565b600191505092915050565b60126020528060005260406000206000915090505481565b6108e0611719565b8060068190555050565b6108f2611719565b80600d8190555050565b6000600254905090565b6000806109116118ed565b905061091e858285611abe565b610929858585611b4a565b60019150509392505050565b600084848460405160200161094c93929190612b6a565b6040516020818303038152906040528051906020012060001c9050600f6040518060a001604052808781526020018681526020018573ffffffffffffffffffffffffffffffffffffffff16815260200184815260200183815250908060018154018082558091505060019003906000526020600020906005020160009091909190915060008201518160000190805190602001906109eb929190612329565b506020820151816001019080519060200190610a08929190612329565b5060408201518160020160006101000a81548173ffffffffffffffffffffffffffffffffffffffff021916908373ffffffffffffffffffffffffffffffffffffffff1602179055506060820151816003015560808201518160040155505060006001600f80549050610a7a9190612b9f565b9050336010600083815260200190815260200160002060006101000a81548173ffffffffffffffffffffffffffffffffffffffff021916908373ffffffffffffffffffffffffffffffffffffffff1602179055507fd6fd709138c3a0378ad0d75272bc485fb921c636bf289e47774904bad92fc575868686858588604051610b0796959493929190612bd3565b60405180910390a1505050505050565b60006012905090565b60116020528060005260406000206000915090505481565b600080610b436118ed565b9050610b64818585610b558589611445565b610b5f9190612c42565b6118f5565b600191505092915050565b60008173ffffffffffffffffffffffffffffffffffffffff163373ffffffffffffffffffffffffffffffffffffffff1614610ba957600080fd5b42600981905550603c80600854600954610bc39190612b9f565b610bcd9190612cc7565b610bd79190612cc7565b600a8190555060005b600f80549050811015610cc75760116000601260003373ffffffffffffffffffffffffffffffffffffffff1673ffffffffffffffffffffffffffffffffffffffff16815260200190815260200160002054815260200190815260200160002054600f8281548110610c5457610c53612cf8565b5b90600052602060002090600502016004015403610cb457600f8181548110610c7f57610c7e612cf8565b5b906000526020600020906005020160020160009054906101000a900473ffffffffffffffffffffffffffffffffffffffff1691505b8080610cbf90612d27565b915050610be0565b506008600a541015610de157610cdb611dc0565b600160076000828254610cee9190612b9f565b925050819055508173ffffffffffffffffffffffffffffffffffffffff166108fc662386f26fc10000600654610d249190612a2c565b9081150290604051600060405180830381858888f19350505050158015610d4f573d6000803e3d6000fd5b506000670de0b6b3a7640000600d54610d689190612a2c565b600a54610d759190612a2c565b90506000600c5482610d879190612cc7565b9050610d938483611797565b610d9d8382611797565b7fe00b701d9184648c5fb36ba71d92b01a07ab793dfd4ea52892bacb1cfd5bb7d5600a548383604051610dd293929190612d6f565b60405180910390a15050610ef3565b610de9611dc0565b600160076000828254610dfc9190612b9f565b925050819055508173ffffffffffffffffffffffffffffffffffffffff166108fc662386f26fc10000600654610e329190612a2c565b9081150290604051600060405180830381858888f19350505050158015610e5d573d6000803e3d6000fd5b506000600c54670de0b6b3a7640000600d54610e799190612a2c565b610e839190612cc7565b90506000670de0b6b3a7640000600d54610e9d9190612a2c565b9050610ea98482611797565b610eb38383611797565b7fe00b701d9184648c5fb36ba71d92b01a07ab793dfd4ea52892bacb1cfd5bb7d5600a548284604051610ee893929190612d6f565b60405180910390a150505b5050565b60008060008373ffffffffffffffffffffffffffffffffffffffff1673ffffffffffffffffffffffffffffffffffffffff168152602001908152602001600020549050919050565b610f47611719565b610f516000611ea3565b565b6000601354905090565b610f65611719565b670de0b6b3a764000081610f799190612a2c565b600b8190555050565b6000600560009054906101000a900473ffffffffffffffffffffffffffffffffffffffff16905090565b606060048054610fbb90612ab5565b80601f0160208091040260200160405190810160405280929190818152602001828054610fe790612ab5565b80156110345780601f1061100957610100808354040283529160200191611034565b820191906000526020600020905b81548152906001019060200180831161101757829003601f168201915b5050505050905090565b6000601260003373ffffffffffffffffffffffffffffffffffffffff1673ffffffffffffffffffffffffffffffffffffffff16815260200190815260200160002054905090565b600f818154811061109557600080fd5b90600052602060002090600502016000915090508060000180546110b890612ab5565b80601f01602080910402602001604051908101604052809291908181526020018280546110e490612ab5565b80156111315780601f1061110657610100808354040283529160200191611131565b820191906000526020600020905b81548152906001019060200180831161111457829003601f168201915b50505050509080600101805461114690612ab5565b80601f016020809104026020016040519081016040528092919081815260200182805461117290612ab5565b80156111bf5780601f10611194576101008083540402835291602001916111bf565b820191906000526020600020905b8154815290600101906020018083116111a257829003601f168201915b5050505050908060020160009054906101000a900473ffffffffffffffffffffffffffffffffffffffff16908060030154908060040154905085565b600080600090505b600f8054905081101561128e5783600f828154811061122557611224612cf8565b5b906000526020600020906005020160040154148015611268575082600f828154811061125457611253612cf8565b5b906000526020600020906005020160030154145b15611276576001915061127b565b600091505b808061128690612d27565b915050611203565b506001811461129c57600080fd5b662386f26fc100006006546112b19190612a2c565b34146112f2576040517f08c379a00000000000000000000000000000000000000000000000000000000081526004016112e990612df2565b60405180910390fd5b6112fa611f69565b508260116000601260003373ffffffffffffffffffffffffffffffffffffffff1673ffffffffffffffffffffffffffffffffffffffff168152602001908152602001600020548152602001908152602001600020819055506001600760008282546113659190612c42565b9250508190555042600881905550505050565b60106020528060005260406000206000915054906101000a900473ffffffffffffffffffffffffffffffffffffffff1681565b6000806113b66118ed565b905060006113c48286611445565b905083811015611409576040517f08c379a000000000000000000000000000000000000000000000000000000000815260040161140090612e84565b60405180910390fd5b61141682868684036118f5565b60019250505092915050565b60008061142d6118ed565b905061143a818585611b4a565b600191505092915050565b6000600160008473ffffffffffffffffffffffffffffffffffffffff1673ffffffffffffffffffffffffffffffffffffffff16815260200190815260200160002060008373ffffffffffffffffffffffffffffffffffffffff1673ffffffffffffffffffffffffffffffffffffffff16815260200190815260200160002054905092915050565b3373ffffffffffffffffffffffffffffffffffffffff166010600084815260200190815260200160002060009054906101000a900473ffffffffffffffffffffffffffffffffffffffff1673ffffffffffffffffffffffffffffffffffffffff161461153757600080fd5b80600f838154811061154c5761154b612cf8565b5b9060005260206000209060050201600301819055505050565b61156d611719565b600073ffffffffffffffffffffffffffffffffffffffff168173ffffffffffffffffffffffffffffffffffffffff16036115dc576040517f08c379a00000000000000000000000000000000000000000000000000000000081526004016115d390612f16565b60405180910390fd5b6115e581611ea3565b50565b600b54670de0b6b3a7640000826115ff9190612a2c565b1015611640576040517f08c379a000000000000000000000000000000000000000000000000000000000815260040161163790612fa8565b60405180910390fd5b6000600a670de0b6b3a7640000836116589190612a2c565b6116629190612cc7565b905061166d82612132565b8373ffffffffffffffffffffffffffffffffffffffff16631d992d2284836040518363ffffffff1660e01b81526004016116a8929190612fc8565b600060405180830381600087803b1580156116c257600080fd5b505af11580156116d6573d6000803e3d6000fd5b505050507ffe401de81dca00f53e547350f47eabbf0f478efa81db5f4c171c9d0fa4aa71f5828260405161170b929190612ff1565b60405180910390a150505050565b6117216118ed565b73ffffffffffffffffffffffffffffffffffffffff1661173f610f82565b73ffffffffffffffffffffffffffffffffffffffff1614611795576040517f08c379a000000000000000000000000000000000000000000000000000000000815260040161178c90613066565b60405180910390fd5b565b600073ffffffffffffffffffffffffffffffffffffffff168273ffffffffffffffffffffffffffffffffffffffff1603611806576040517f08c379a00000000000000000000000000000000000000000000000000000000081526004016117fd906130d2565b60405180910390fd5b61181260008383612152565b80600260008282546118249190612c42565b92505081905550806000808473ffffffffffffffffffffffffffffffffffffffff1673ffffffffffffffffffffffffffffffffffffffff168152602001908152602001600020600082825401925050819055508173ffffffffffffffffffffffffffffffffffffffff16600073ffffffffffffffffffffffffffffffffffffffff167fddf252ad1be2c89b69c2b068fc378daa952ba7f163c4a11628f55a4df523b3ef836040516118d591906124ed565b60405180910390a36118e960008383612157565b5050565b600033905090565b600073ffffffffffffffffffffffffffffffffffffffff168373ffffffffffffffffffffffffffffffffffffffff1603611964576040517f08c379a000000000000000000000000000000000000000000000000000000000815260040161195b90613164565b60405180910390fd5b600073ffffffffffffffffffffffffffffffffffffffff168273ffffffffffffffffffffffffffffffffffffffff16036119d3576040517f08c379a00000000000000000000000000000000000000000000000000000000081526004016119ca906131f6565b60405180910390fd5b80600160008573ffffffffffffffffffffffffffffffffffffffff1673ffffffffffffffffffffffffffffffffffffffff16815260200190815260200160002060008473ffffffffffffffffffffffffffffffffffffffff1673ffffffffffffffffffffffffffffffffffffffff168152602001908152602001600020819055508173ffffffffffffffffffffffffffffffffffffffff168373ffffffffffffffffffffffffffffffffffffffff167f8c5be1e5ebec7d5bd14f71427d1e84f3dd0314c0f7b2291e5b200ac8c7c3b92583604051611ab191906124ed565b60405180910390a3505050565b6000611aca8484611445565b90507fffffffffffffffffffffffffffffffffffffffffffffffffffffffffffffffff8114611b445781811015611b36576040517f08c379a0000000000000000000000000000000000000000000000000000000008152600401611b2d90613262565b60405180910390fd5b611b4384848484036118f5565b5b50505050565b600073ffffffffffffffffffffffffffffffffffffffff168373ffffffffffffffffffffffffffffffffffffffff1603611bb9576040517f08c379a0000000000000000000000000000000000000000000000000000000008152600401611bb0906132f4565b60405180910390fd5b600073ffffffffffffffffffffffffffffffffffffffff168273ffffffffffffffffffffffffffffffffffffffff1603611c28576040517f08c379a0000000000000000000000000000000000000000000000000000000008152600401611c1f90613386565b60405180910390fd5b611c33838383612152565b60008060008573ffffffffffffffffffffffffffffffffffffffff1673ffffffffffffffffffffffffffffffffffffffff16815260200190815260200160002054905081811015611cb9576040517f08c379a0000000000000000000000000000000000000000000000000000000008152600401611cb090613418565b60405180910390fd5b8181036000808673ffffffffffffffffffffffffffffffffffffffff1673ffffffffffffffffffffffffffffffffffffffff16815260200190815260200160002081905550816000808573ffffffffffffffffffffffffffffffffffffffff1673ffffffffffffffffffffffffffffffffffffffff168152602001908152602001600020600082825401925050819055508273ffffffffffffffffffffffffffffffffffffffff168473ffffffffffffffffffffffffffffffffffffffff167fddf252ad1be2c89b69c2b068fc378daa952ba7f163c4a11628f55a4df523b3ef84604051611da791906124ed565b60405180910390a3611dba848484612157565b50505050565b6000601260003373ffffffffffffffffffffffffffffffffffffffff1673ffffffffffffffffffffffffffffffffffffffff1681526020019081526020016000205403611e42576040517f08c379a0000000000000000000000000000000000000000000000000000000008152600401611e39906134aa565b60405180910390fd5b600160136000828254611e559190612b9f565b925050819055506000601260003373ffffffffffffffffffffffffffffffffffffffff1673ffffffffffffffffffffffffffffffffffffffff16815260200190815260200160002081905550565b6000600560009054906101000a900473ffffffffffffffffffffffffffffffffffffffff16905081600560006101000a81548173ffffffffffffffffffffffffffffffffffffffff021916908373ffffffffffffffffffffffffffffffffffffffff1602179055508173ffffffffffffffffffffffffffffffffffffffff168173ffffffffffffffffffffffffffffffffffffffff167f8be0079c531659141344cd1fd0a4f28419497f9722a3daafe3b4186f6b6457e060405160405180910390a35050565b600080601260003373ffffffffffffffffffffffffffffffffffffffff1673ffffffffffffffffffffffffffffffffffffffff1681526020019081526020016000205414611fec576040517f08c379a0000000000000000000000000000000000000000000000000000000008152600401611fe390613516565b60405180910390fd5b600160136000828254611fff9190612c42565b925050819055504233604051602001612019929190613557565b6040516020818303038152906040528051906020012060001c601260003373ffffffffffffffffffffffffffffffffffffffff1673ffffffffffffffffffffffffffffffffffffffff168152602001908152602001600020819055507fc400aa2ca09937687bd53f1028c4539c00b9014dd3fd0f8f49c27c8727fb1ebf33601260003373ffffffffffffffffffffffffffffffffffffffff1673ffffffffffffffffffffffffffffffffffffffff168152602001908152602001600020546040516120e5929190612fc8565b60405180910390a1601260003373ffffffffffffffffffffffffffffffffffffffff1673ffffffffffffffffffffffffffffffffffffffff16815260200190815260200160002054905090565b61214f33670de0b6b3a76400008361214a9190612a2c565b61215c565b50565b505050565b505050565b600073ffffffffffffffffffffffffffffffffffffffff168273ffffffffffffffffffffffffffffffffffffffff16036121cb576040517f08c379a00000000000000000000000000000000000000000000000000000000081526004016121c2906135f5565b60405180910390fd5b6121d782600083612152565b60008060008473ffffffffffffffffffffffffffffffffffffffff1673ffffffffffffffffffffffffffffffffffffffff1681526020019081526020016000205490508181101561225d576040517f08c379a000000000000000000000000000000000000000000000000000000000815260040161225490613687565b60405180910390fd5b8181036000808573ffffffffffffffffffffffffffffffffffffffff1673ffffffffffffffffffffffffffffffffffffffff1681526020019081526020016000208190555081600260008282540392505081905550600073ffffffffffffffffffffffffffffffffffffffff168373ffffffffffffffffffffffffffffffffffffffff167fddf252ad1be2c89b69c2b068fc378daa952ba7f163c4a11628f55a4df523b3ef8460405161231091906124ed565b60405180910390a361232483600084612157565b505050565b82805461233590612ab5565b90600052602060002090601f016020900481019282612357576000855561239e565b82601f1061237057805160ff191683800117855561239e565b8280016001018555821561239e579182015b8281111561239d578251825591602001919060010190612382565b5b5090506123ab91906123af565b5090565b5b808211156123c85760008160009055506001016123b0565b5090565b600073ffffffffffffffffffffffffffffffffffffffff82169050919050565b60006123f7826123cc565b9050919050565b612407816123ec565b82525050565b600060208201905061242260008301846123fe565b92915050565b6000604051905090565b600080fd5b600080fd5b612445816123ec565b811461245057600080fd5b50565b6000813590506124628161243c565b92915050565b6000819050919050565b61247b81612468565b811461248657600080fd5b50565b60008135905061249881612472565b92915050565b600080604083850312156124b5576124b4612432565b5b60006124c385828601612453565b92505060206124d485828601612489565b9150509250929050565b6124e781612468565b82525050565b600060208201905061250260008301846124de565b92915050565b600081519050919050565b600082825260208201905092915050565b60005b83811015612542578082015181840152602081019050612527565b83811115612551576000848401525b50505050565b6000601f19601f8301169050919050565b600061257382612508565b61257d8185612513565b935061258d818560208601612524565b61259681612557565b840191505092915050565b600060208201905081810360008301526125bb8184612568565b905092915050565b60008115159050919050565b6125d8816125c3565b82525050565b60006020820190506125f360008301846125cf565b92915050565b60006020828403121561260f5761260e612432565b5b600061261d84828501612453565b91505092915050565b60006020828403121561263c5761263b612432565b5b600061264a84828501612489565b91505092915050565b60008060006060848603121561266c5761266b612432565b5b600061267a86828701612453565b935050602061268b86828701612453565b925050604061269c86828701612489565b9150509250925092565b600080fd5b600080fd5b7f4e487b7100000000000000000000000000000000000000000000000000000000600052604160045260246000fd5b6126e882612557565b810181811067ffffffffffffffff82111715612707576127066126b0565b5b80604052505050565b600061271a612428565b905061272682826126df565b919050565b600067ffffffffffffffff821115612746576127456126b0565b5b61274f82612557565b9050602081019050919050565b82818337600083830152505050565b600061277e6127798461272b565b612710565b90508281526020810184848401111561279a576127996126ab565b5b6127a584828561275c565b509392505050565b600082601f8301126127c2576127c16126a6565b5b81356127d284826020860161276b565b91505092915050565b600080600080608085870312156127f5576127f4612432565b5b600085013567ffffffffffffffff81111561281357612812612437565b5b61281f878288016127ad565b945050602085013567ffffffffffffffff8111156128405761283f612437565b5b61284c878288016127ad565b935050604061285d87828801612453565b925050606061286e87828801612489565b91505092959194509250565b600060ff82169050919050565b6128908161287a565b82525050565b60006020820190506128ab6000830184612887565b92915050565b60006128bc826123cc565b9050919050565b6128cc816128b1565b81146128d757600080fd5b50565b6000813590506128e9816128c3565b92915050565b60006020828403121561290557612904612432565b5b6000612913848285016128da565b91505092915050565b600060a08201905081810360008301526129368188612568565b9050818103602083015261294a8187612568565b905061295960408301866123fe565b61296660608301856124de565b61297360808301846124de565b9695505050505050565b6000806040838503121561299457612993612432565b5b60006129a285828601612489565b92505060206129b385828601612489565b9150509250929050565b600080604083850312156129d4576129d3612432565b5b60006129e285828601612453565b92505060206129f385828601612453565b9150509250929050565b7f4e487b7100000000000000000000000000000000000000000000000000000000600052601160045260246000fd5b6000612a3782612468565b9150612a4283612468565b9250817fffffffffffffffffffffffffffffffffffffffffffffffffffffffffffffffff0483118215151615612a7b57612a7a6129fd565b5b828202905092915050565b7f4e487b7100000000000000000000000000000000000000000000000000000000600052602260045260246000fd5b60006002820490506001821680612acd57607f821691505b602082108103612ae057612adf612a86565b5b50919050565b600081905092915050565b6000612afc82612508565b612b068185612ae6565b9350612b16818560208601612524565b80840191505092915050565b60008160601b9050919050565b6000612b3a82612b22565b9050919050565b6000612b4c82612b2f565b9050919050565b612b64612b5f826123ec565b612b41565b82525050565b6000612b768286612af1565b9150612b828285612af1565b9150612b8e8284612b53565b601482019150819050949350505050565b6000612baa82612468565b9150612bb583612468565b925082821015612bc857612bc76129fd565b5b828203905092915050565b600060c0820190508181036000830152612bed8189612568565b90508181036020830152612c018188612568565b9050612c1060408301876123fe565b612c1d60608301866124de565b612c2a60808301856124de565b612c3760a08301846124de565b979650505050505050565b6000612c4d82612468565b9150612c5883612468565b9250827fffffffffffffffffffffffffffffffffffffffffffffffffffffffffffffffff03821115612c8d57612c8c6129fd565b5b828201905092915050565b7f4e487b7100000000000000000000000000000000000000000000000000000000600052601260045260246000fd5b6000612cd282612468565b9150612cdd83612468565b925082612ced57612cec612c98565b5b828204905092915050565b7f4e487b7100000000000000000000000000000000000000000000000000000000600052603260045260246000fd5b6000612d3282612468565b91507fffffffffffffffffffffffffffffffffffffffffffffffffffffffffffffffff8203612d6457612d636129fd565b5b600182019050919050565b6000606082019050612d8460008301866124de565b612d9160208301856124de565b612d9e60408301846124de565b949350505050565b7f496e76616c696420486170707920486f7572204665652e000000000000000000600082015250565b6000612ddc601783612513565b9150612de782612da6565b602082019050919050565b60006020820190508181036000830152612e0b81612dcf565b9050919050565b7f45524332303a2064656372656173656420616c6c6f77616e63652062656c6f7760008201527f207a65726f000000000000000000000000000000000000000000000000000000602082015250565b6000612e6e602583612513565b9150612e7982612e12565b604082019050919050565b60006020820190508181036000830152612e9d81612e61565b9050919050565b7f4f776e61626c653a206e6577206f776e657220697320746865207a65726f206160008201527f6464726573730000000000000000000000000000000000000000000000000000602082015250565b6000612f00602683612513565b9150612f0b82612ea4565b604082019050919050565b60006020820190508181036000830152612f2f81612ef3565b9050919050565b7f496e73756666696369656e7420616d6f756e74206f6620484f555220746f6b6560008201527f6e7320746f206275726e2e000000000000000000000000000000000000000000602082015250565b6000612f92602b83612513565b9150612f9d82612f36565b604082019050919050565b60006020820190508181036000830152612fc181612f85565b9050919050565b6000604082019050612fdd60008301856123fe565b612fea60208301846124de565b9392505050565b600060408201905061300660008301856124de565b61301360208301846124de565b9392505050565b7f4f776e61626c653a2063616c6c6572206973206e6f7420746865206f776e6572600082015250565b6000613050602083612513565b915061305b8261301a565b602082019050919050565b6000602082019050818103600083015261307f81613043565b9050919050565b7f45524332303a206d696e7420746f20746865207a65726f206164647265737300600082015250565b60006130bc601f83612513565b91506130c782613086565b602082019050919050565b600060208201905081810360008301526130eb816130af565b9050919050565b7f45524332303a20617070726f76652066726f6d20746865207a65726f2061646460008201527f7265737300000000000000000000000000000000000000000000000000000000602082015250565b600061314e602483612513565b9150613159826130f2565b604082019050919050565b6000602082019050818103600083015261317d81613141565b9050919050565b7f45524332303a20617070726f766520746f20746865207a65726f20616464726560008201527f7373000000000000000000000000000000000000000000000000000000000000602082015250565b60006131e0602283612513565b91506131eb82613184565b604082019050919050565b6000602082019050818103600083015261320f816131d3565b9050919050565b7f45524332303a20696e73756666696369656e7420616c6c6f77616e6365000000600082015250565b600061324c601d83612513565b915061325782613216565b602082019050919050565b6000602082019050818103600083015261327b8161323f565b9050919050565b7f45524332303a207472616e736665722066726f6d20746865207a65726f20616460008201527f6472657373000000000000000000000000000000000000000000000000000000602082015250565b60006132de602583612513565b91506132e982613282565b604082019050919050565b6000602082019050818103600083015261330d816132d1565b9050919050565b7f45524332303a207472616e7366657220746f20746865207a65726f206164647260008201527f6573730000000000000000000000000000000000000000000000000000000000602082015250565b6000613370602383612513565b915061337b82613314565b604082019050919050565b6000602082019050818103600083015261339f81613363565b9050919050565b7f45524332303a207472616e7366657220616d6f756e742065786365656473206260008201527f616c616e63650000000000000000000000000000000000000000000000000000602082015250565b6000613402602683612513565b915061340d826133a6565b604082019050919050565b60006020820190508181036000830152613431816133f5565b9050919050565b7f596f7520686176656e27742073746172746564206472696e6b696e672079657460008201527f2e00000000000000000000000000000000000000000000000000000000000000602082015250565b6000613494602183612513565b915061349f82613438565b604082019050919050565b600060208201905081810360008301526134c381613487565b9050919050565b7f596f752061726520616c7265616479206472696e6b696e672e00000000000000600082015250565b6000613500601983612513565b915061350b826134ca565b602082019050919050565b6000602082019050818103600083015261352f816134f3565b9050919050565b6000819050919050565b61355161354c82612468565b613536565b82525050565b60006135638285613540565b6020820191506135738284612b53565b6014820191508190509392505050565b7f45524332303a206275726e2066726f6d20746865207a65726f2061646472657360008201527f7300000000000000000000000000000000000000000000000000000000000000602082015250565b60006135df602183612513565b91506135ea82613583565b604082019050919050565b6000602082019050818103600083015261360e816135d2565b9050919050565b7f45524332303a206275726e20616d6f756e7420657863656564732062616c616e60008201527f6365000000000000000000000000000000000000000000000000000000000000602082015250565b6000613671602283612513565b915061367c82613615565b604082019050919050565b600060208201905081810360008301526136a081613664565b905091905056fea2646970667358221220a12876b1c4ddd67ef636fe9a68284aef97521ec6ecbde82036eacc4177f42cba64736f6c634300080d0033",
  "immutableReferences": {},
  "source": "/* SPDX-License-Identifier: UNLICENSED */\n\npragma solidity ^0.8.0;\n\nimport '@openzeppelin/contracts/token/ERC20/ERC20.sol';\nimport '@openzeppelin/contracts/access/Ownable.sol';\n\ninterface IDRNKtoken {\n    function mintDRNK(address to, uint amount) external;\n}\n\n/* Main Happy Hour Protocol v2 Engine Contract */\n\ncontract HappyHourProtocolv3 is ERC20, Ownable {\n\n    uint happyHourFee = 1;\n    uint happyHourFeePool;\n    uint timeIN;\n    uint timeOUT;\n    uint hoursSpentDrinking;\n    uint HOUR2DRNKburnMinimum = 2000 * (10 ** 18);\n    uint PDEcommissionRate = 10;\n    uint HOURperhour = 100;\n\n    event endHOURresults(uint hoursSpentDrinking, uint HOURearned, uint PDEcommissionEarned);\n    event newPDEonboarded(string _name, string _location, address _address, uint _PDEid, uint PDEindexNum, uint accessCode);\n    event newDRNKminted(uint HOURburned, uint DRNKminted);\n\n    address public _admin;\n\n    struct PDE {\n        string _name;\n        string _location;\n        address _address;\n        uint _accessCode;\n        uint _PDEid;\n    }\n\n    PDE[] public pdes;\n\n    mapping (uint => address) public PDEtoOwner;\n    mapping (uint => uint) public drinkingIDtoPDEid;\n\n    /* Initializing the HappyHourProtocolv2 contract */\n\n    constructor() ERC20('Happy Hour Token v3', 'HOUR') {\n        _mint(msg.sender, 1 * (10 ** 18));\n        _admin = msg.sender;\n    }\n\n    /* Public onboarding function for PDE. Name, Location, ETH address, and a temporary Access Code are required. */\n\n    function onboardPDE(string memory _name, string memory _location, address _address, uint _accessCode) public {\n        uint PDEid = uint(keccak256(abi.encodePacked(_name, _location, _address)));\n        pdes.push(PDE(_name, _location, _address, _accessCode, PDEid));\n        uint PDEindexNum = pdes.length - 1;\n        PDEtoOwner[PDEindexNum] = msg.sender;\n        emit newPDEonboarded(_name, _location, _address, PDEid, PDEindexNum, _accessCode);\n    }\n\n    /* Enables PDEs to change their Access Code anytime */\n\n    function _changeAccessCode(uint _PDEindexNum, uint _newAccessCode) public {\n        require(PDEtoOwner[_PDEindexNum] == msg.sender);\n        pdes[_PDEindexNum]._accessCode = _newAccessCode;\n    }\n\n    /* Contract owner may adjust HOUR burn minimum */\n\n    function setHOUR2DRNKburnMinimum(uint _burnMinimum) external onlyOwner {\n        HOUR2DRNKburnMinimum = _burnMinimum * (10 ** 18);\n    }\n\n    /* $DRNK mint function. Requires inputting DRNK governance token contract, ETH address, and a minimum $HOUR to burn. */\n\n    function mintyDRNK(address _DRNKaddress, address to, uint _burnAmount) public {\n        require((_burnAmount * (10 ** 18)) >= HOUR2DRNKburnMinimum, \"Insufficient amount of HOUR tokens to burn.\");\n        uint DRNKneeded2mint = (_burnAmount * (10 ** 18)) / 10;\n        burnHOUR(_burnAmount);\n        IDRNKtoken(_DRNKaddress).mintDRNK(to, DRNKneeded2mint);\n        emit newDRNKminted(_burnAmount, DRNKneeded2mint);\n    }\n\n    /* mintHOUR and burnHOUR functions will not be public */\n\n    function mintHOUR(address to, uint amount) external onlyOwner {\n        _mint(to, amount * (10 ** 18));\n    }\n\n    function burnHOUR(uint amount) internal {\n        _burn(msg.sender, amount * (10 ** 18));\n    }\n\n    /* Drinkers need to stake a minimum happy hour fee in order to start earning $HOUR. Minimum happy hour fee may be adjusted. */\n\n    function setHappyHourFee(uint _fee) external onlyOwner {\n        happyHourFee = _fee;\n    }\n\n    /* Each Drinker is designated an ID in order to keep track of current hours accumulated per Drinker during 1 session. */\n\n    mapping(address => uint256) public drinkingID;\n    uint256 drinkingIDcounter;\n\n    event createdDrinkingID(address user, uint256 id);\n\n    function givePoolDrinkingId() internal returns (uint256)  { \n        require(drinkingID[msg.sender]==0, \"You are already drinking.\");\n        drinkingIDcounter += 1;\n        drinkingID[msg.sender] = uint(keccak256(abi.encodePacked(block.timestamp, msg.sender)));\n        emit createdDrinkingID(msg.sender,drinkingID[msg.sender]);\n        return drinkingID[msg.sender];\n    }\n\n    function nullPoolDrinkingId() internal {\n        require(drinkingID[msg.sender] != 0, \"You haven't started drinking yet.\");\n        drinkingIDcounter -= 1;\n        drinkingID[msg.sender] = 0;\n    }\n\n    function getPoolDrinkingId() public view returns(uint256) {\n        return drinkingID[msg.sender];\n    }\n\n    function getNumberOfCurrentDrinkers() public view returns(uint) {\n        return drinkingIDcounter;\n    }\n\n    /* Start earning $HOUR function. Requires a minimum happy hour fee stake, the PDE's PDEid and its Access Code. */\n\n    function startHOUR(uint _PDEid, uint _accessCode) public payable {\n\n        uint validPDE;\n\n        for (uint i = 0; i < pdes.length; i++) {\n            if (pdes[i]._PDEid == _PDEid && pdes[i]._accessCode == _accessCode) {\n                validPDE = 1;\n            } else {\n                validPDE = 0;\n            }\n        }\n\n        require(validPDE == 1);\n        require(msg.value == happyHourFee * (10 ** 16), \"Invalid Happy Hour Fee.\");\n        givePoolDrinkingId();\n        drinkingIDtoPDEid[drinkingID[msg.sender]] = _PDEid;\n        happyHourFeePool += 1;\n        timeIN = block.timestamp;\n    }\n\n    /* Getter function to view ETH amount staked in current happy hour fee pool. */\n\n    function gethappyHourFeePool() public view returns (uint) {\n        return happyHourFeePool;\n    }\n\n    /* Function to stop earning $HOUR */\n\n    function endHOUR(address payable wiped) public {\n\n        address PDEcommission;\n        require(msg.sender == wiped);\n        timeOUT = block.timestamp;\n        hoursSpentDrinking = (timeOUT - timeIN) / 60 / 60;\n\n        for (uint i = 0; i < pdes.length; i++) {\n            if (pdes[i]._PDEid == drinkingIDtoPDEid[drinkingID[msg.sender]]) {\n                PDEcommission = pdes[i]._address;\n            }\n        }\n\n        if (hoursSpentDrinking < 8) {\n            nullPoolDrinkingId();\n            happyHourFeePool -= 1;\n            wiped.transfer(happyHourFee * (10 ** 16));\n            uint HOURearned = hoursSpentDrinking * (HOURperhour * (10 ** 18));\n            uint PDEcommissionEarned = HOURearned / PDEcommissionRate;\n            _mint(wiped, HOURearned);\n            _mint(PDEcommission, PDEcommissionEarned);\n            emit endHOURresults(hoursSpentDrinking, HOURearned, PDEcommissionEarned);\n        } else {\n            nullPoolDrinkingId();\n            happyHourFeePool -= 1;\n            wiped.transfer(happyHourFee * (10 ** 16));\n            uint PDEcommissionEarned = (HOURperhour * (10 ** 18)) / PDEcommissionRate;\n            uint penalHOURearned = HOURperhour * (10 ** 18);\n            _mint(wiped, penalHOURearned);\n            _mint(PDEcommission, PDEcommissionEarned);\n            emit endHOURresults(hoursSpentDrinking, penalHOURearned, PDEcommissionEarned);\n        }\n\n        \n    }\n\n    /* Adjustable earned $HOUR/hour rate */\n\n    function adjustHOURperhourRate(uint _newRate) external onlyOwner {\n        HOURperhour = _newRate;\n    }\n\n    receive() external payable {}\n\n}\n\n\n\n",
  "sourcePath": "/Users/ericchoy/Code/Happy-Hour-Protocol-Engine-v3/Happy-Hour-Protocol-Engine/contracts/HOURv3.sol",
  "compiler": {
    "name": "solc",
    "version": "0.8.13+commit.abaa5c0e.Emscripten.clang"
  },
  "schemaVersion": "3.4.8",
  "updatedAt": "2022-11-11T07:12:45.975Z",
  "networkType": "ethereum",
  "devdoc": {
    "kind": "dev",
    "methods": {
      "allowance(address,address)": {
        "details": "See {IERC20-allowance}."
      },
      "approve(address,uint256)": {
        "details": "See {IERC20-approve}. NOTE: If `amount` is the maximum `uint256`, the allowance is not updated on `transferFrom`. This is semantically equivalent to an infinite approval. Requirements: - `spender` cannot be the zero address."
      },
      "balanceOf(address)": {
        "details": "See {IERC20-balanceOf}."
      },
      "decimals()": {
        "details": "Returns the number of decimals used to get its user representation. For example, if `decimals` equals `2`, a balance of `505` tokens should be displayed to a user as `5.05` (`505 / 10 ** 2`). Tokens usually opt for a value of 18, imitating the relationship between Ether and Wei. This is the value {ERC20} uses, unless this function is overridden; NOTE: This information is only used for _display_ purposes: it in no way affects any of the arithmetic of the contract, including {IERC20-balanceOf} and {IERC20-transfer}."
      },
      "decreaseAllowance(address,uint256)": {
        "details": "Atomically decreases the allowance granted to `spender` by the caller. This is an alternative to {approve} that can be used as a mitigation for problems described in {IERC20-approve}. Emits an {Approval} event indicating the updated allowance. Requirements: - `spender` cannot be the zero address. - `spender` must have allowance for the caller of at least `subtractedValue`."
      },
      "increaseAllowance(address,uint256)": {
        "details": "Atomically increases the allowance granted to `spender` by the caller. This is an alternative to {approve} that can be used as a mitigation for problems described in {IERC20-approve}. Emits an {Approval} event indicating the updated allowance. Requirements: - `spender` cannot be the zero address."
      },
      "name()": {
        "details": "Returns the name of the token."
      },
      "owner()": {
        "details": "Returns the address of the current owner."
      },
      "renounceOwnership()": {
        "details": "Leaves the contract without owner. It will not be possible to call `onlyOwner` functions anymore. Can only be called by the current owner. NOTE: Renouncing ownership will leave the contract without an owner, thereby removing any functionality that is only available to the owner."
      },
      "symbol()": {
        "details": "Returns the symbol of the token, usually a shorter version of the name."
      },
      "totalSupply()": {
        "details": "See {IERC20-totalSupply}."
      },
      "transfer(address,uint256)": {
        "details": "See {IERC20-transfer}. Requirements: - `to` cannot be the zero address. - the caller must have a balance of at least `amount`."
      },
      "transferFrom(address,address,uint256)": {
        "details": "See {IERC20-transferFrom}. Emits an {Approval} event indicating the updated allowance. This is not required by the EIP. See the note at the beginning of {ERC20}. NOTE: Does not update the allowance if the current allowance is the maximum `uint256`. Requirements: - `from` and `to` cannot be the zero address. - `from` must have a balance of at least `amount`. - the caller must have allowance for ``from``'s tokens of at least `amount`."
      },
      "transferOwnership(address)": {
        "details": "Transfers ownership of the contract to a new account (`newOwner`). Can only be called by the current owner."
      }
    },
    "version": 1
  },
  "userdoc": {
    "kind": "user",
    "methods": {},
    "version": 1
  }
}