{
  "contractName": "poolDrinkingID",
  "abi": [
    {
      "anonymous": false,
      "inputs": [
        {
          "indexed": false,
          "internalType": "address",
          "name": "user",
          "type": "address"
        },
        {
          "indexed": false,
          "internalType": "uint256",
          "name": "id",
          "type": "uint256"
        }
      ],
      "name": "createdDrinkingID",
      "type": "event"
    },
    {
      "inputs": [
        {
          "internalType": "address",
          "name": "",
          "type": "address"
        }
      ],
      "name": "drinkingID",
      "outputs": [
        {
          "internalType": "uint256",
          "name": "",
          "type": "uint256"
        }
      ],
      "stateMutability": "view",
      "type": "function"
    },
    {
      "inputs": [],
      "name": "getPoolDrinkingId",
      "outputs": [
        {
          "internalType": "uint256",
          "name": "",
          "type": "uint256"
        }
      ],
      "stateMutability": "view",
      "type": "function"
    },
    {
      "inputs": [],
      "name": "getNumberOfCurrentDrinkers",
      "outputs": [
        {
          "internalType": "uint256",
          "name": "",
          "type": "uint256"
        }
      ],
      "stateMutability": "view",
      "type": "function"
    }
  ],
  "bytecode": "0x608060405234801561001057600080fd5b5061020b806100206000396000f3fe608060405234801561001057600080fd5b50600436106100415760003560e01c80630d3ac8d21461004657806375937b471461007657806396039aa314610094575b600080fd5b610060600480360381019061005b919061012f565b6100b2565b60405161006d9190610167565b60405180910390f35b61007e6100ca565b60405161008b9190610167565b60405180910390f35b61009c6100d4565b6040516100a99190610167565b60405180910390f35b60006020528060005260406000206000915090505481565b6000600154905090565b60008060003373ffffffffffffffffffffffffffffffffffffffff1673ffffffffffffffffffffffffffffffffffffffff16815260200190815260200160002054905090565b600081359050610129816101be565b92915050565b60006020828403121561014157600080fd5b600061014f8482850161011a565b91505092915050565b610161816101b4565b82525050565b600060208201905061017c6000830184610158565b92915050565b600061018d82610194565b9050919050565b600073ffffffffffffffffffffffffffffffffffffffff82169050919050565b6000819050919050565b6101c781610182565b81146101d257600080fd5b5056fea2646970667358221220befa368edf46cbd5e8d8a6f08b2da68958a0e4823c4a4c8bd686336e76a1648d64736f6c63430008000033",
  "immutableReferences": {},
  "source": "/* SPDX-License-Identifier: UNLICENSED */\r\n\r\npragma solidity ^0.8.0;\r\n\r\n/* import 'https://github.com/OpenZeppelin/openzeppelin-contracts/blob/master/contracts/token/ERC20/ERC20.sol';\r\nimport 'https://github.com/OpenZeppelin/openzeppelin-contracts/blob/master/contracts/access/Ownable.sol'; */\r\n\r\nimport '@openzeppelin/contracts/token/ERC20/ERC20.sol';\r\nimport '@openzeppelin/contracts/access/Ownable.sol';\r\n\r\n/* For whitelisting, if implemented. */\r\n\r\ncontract WhitelistID {\r\n\r\n    mapping(address => uint256) public whitelistID;\r\n    address[] public whiteListers;\r\n    uint256 idcounter;\r\n\r\n    event createdId(address user, uint256 id);\r\n\r\n    function giveWhitelistId() internal returns (uint256)  { \r\n        require(whitelistID[msg.sender]==0, \"You are already whitelisted.\");\r\n        idcounter += 1;\r\n        whiteListers.push(msg.sender);\r\n        whitelistID[msg.sender] = idcounter;\r\n        emit createdId(msg.sender,idcounter);\r\n        return idcounter;\r\n    }\r\n\r\n}\r\n\r\n/* Each Drinker is designated an ID in order to keep track of current hours accumulated per Drinker during 1 session. */\r\n\r\ncontract poolDrinkingID {\r\n\r\n    mapping(address => uint256) public drinkingID;\r\n    uint256 drinkingIDcounter;\r\n\r\n    event createdDrinkingID(address user, uint256 id);\r\n\r\n    function givePoolDrinkingId() internal returns (uint256)  { \r\n        require(drinkingID[msg.sender]==0, \"You are already drinking.\");\r\n        drinkingIDcounter += 1;\r\n        drinkingID[msg.sender] = uint(keccak256(abi.encodePacked(block.timestamp, msg.sender)));\r\n        emit createdDrinkingID(msg.sender,drinkingID[msg.sender]);\r\n        return drinkingID[msg.sender];\r\n    }\r\n\r\n    function nullPoolDrinkingId() internal {\r\n        require(drinkingID[msg.sender] != 0, \"You haven't started drinking yet.\");\r\n        drinkingIDcounter -= 1;\r\n        drinkingID[msg.sender] = 0;\r\n    }\r\n\r\n    function getPoolDrinkingId() public view returns(uint256) {\r\n        return drinkingID[msg.sender];\r\n    }\r\n\r\n    function getNumberOfCurrentDrinkers() public view returns(uint) {\r\n        return drinkingIDcounter;\r\n    }\r\n}\r\n\r\n/* $DRNK governance token contract */\r\n\r\ncontract DRNKgovernance is ERC20, Ownable {\r\n\r\n    address public _admin;\r\n\r\n    constructor() ERC20('Drunk Governance Token', 'DRNK') {\r\n        _mint(msg.sender, 1 * (10 ** 18));\r\n        _admin = msg.sender;\r\n    }\r\n\r\n    function mintDRNK(address to, uint amount) external {\r\n        _mint(to, amount);\r\n    }\r\n\r\n    function burnDRNK(uint amount) external {\r\n        _burn(msg.sender, amount * (10 ** 18));\r\n    }\r\n\r\n}\r\n\r\ninterface IDRNKtoken {\r\n    function mintDRNK(address to, uint amount) external;\r\n}\r\n\r\n/* Main Happy Hour Protocol v2 Engine Contract */\r\n\r\ncontract HappyHourProtocolv2 is ERC20, Ownable, WhitelistID, poolDrinkingID {\r\n\r\n    uint happyHourFee = 1;\r\n    uint happyHourFeePool;\r\n    uint timeIN;\r\n    uint timeOUT;\r\n    uint hoursSpentDrinking;\r\n    uint HOUR2DRNKburnMinimum = 2000 * (10 ** 18);\r\n    uint secretCodeWhitelist = 989;\r\n    uint PDEcommissionRate = 10;\r\n    uint HOURperhour = 100;\r\n\r\n    event endHOURresults(uint hoursSpentDrinking, uint HOURearned, uint PDEcommissionEarned);\r\n    event newPDEonboarded(string _name, string _location, address indexed _address, uint _PDEid, uint PDEindexNum, uint accessCode);\r\n    event newDRNKminted(uint HOURburned, uint DRNKminted);\r\n\r\n    address public _admin;\r\n\r\n    struct PDE {\r\n        string _name;\r\n        string _location;\r\n        address _address;\r\n        uint _accessCode;\r\n        uint _PDEid;\r\n    }\r\n\r\n    PDE[] public pdes;\r\n\r\n    mapping (uint => address) public PDEtoOwner;\r\n    mapping (uint => uint) public drinkingIDtoPDEid;\r\n\r\n    /* Initializing the HappyHourProtocolv2 contract */\r\n\r\n    constructor() ERC20('Happy Hour v2', 'HOUR') {\r\n        _mint(msg.sender, 1 * (10 ** 18));\r\n        _admin = msg.sender;\r\n    }\r\n\r\n    /* Public onboarding function for PDE. Name, Location, ETH address, and a temporary Access Code are required. */\r\n\r\n    function onboardPDE(string memory _name, string memory _location, address _address, uint _accessCode) public {\r\n        uint PDEid = uint(keccak256(abi.encodePacked(_name, _location, _address)));\r\n        pdes.push(PDE(_name, _location, _address, _accessCode, PDEid));\r\n        uint PDEindexNum = pdes.length - 1;\r\n        PDEtoOwner[PDEindexNum] = msg.sender;\r\n        emit newPDEonboarded(_name, _location, _address, PDEid, PDEindexNum, _accessCode);\r\n    }\r\n\r\n    /* Enables PDEs to change their Access Code anytime */\r\n\r\n    function _changeAccessCode(uint _PDEindexNum, uint _newAccessCode) public {\r\n        require(PDEtoOwner[_PDEindexNum] == msg.sender);\r\n        pdes[_PDEindexNum]._accessCode = _newAccessCode;\r\n    }\r\n\r\n    /* Contract owner may adjust HOUR burn minimum */\r\n\r\n    function setHOUR2DRNKburnMinimum(uint _burnMinimum) external onlyOwner {\r\n        HOUR2DRNKburnMinimum = _burnMinimum * (10 ** 18);\r\n    }\r\n\r\n    /* $DRNK mint function. Requires inputting DRNK governance token contract, ETH address, and a minimum $HOUR to burn. */\r\n\r\n    function mintyDRNK(address _DRNKaddress, address to, uint _burnAmount) public {\r\n        require((_burnAmount * (10 ** 18)) >= HOUR2DRNKburnMinimum, \"Insufficient amount of HOUR tokens to burn.\");\r\n        uint DRNKneeded2mint = (_burnAmount * (10 ** 18)) / 10;\r\n        uint mintedDRNKemit = DRNKneeded2mint / (10 ** 18);\r\n        burnHOUR(_burnAmount);\r\n        IDRNKtoken(_DRNKaddress).mintDRNK(to, DRNKneeded2mint);\r\n        emit newDRNKminted(_burnAmount, mintedDRNKemit);\r\n    }\r\n\r\n    /* mintHOUR and burnHOUR functions will not be public */\r\n\r\n    function mintHOUR(address to, uint amount) external onlyOwner {\r\n        _mint(to, amount * (10 ** 18));\r\n    }\r\n\r\n    function burnHOUR(uint amount) internal {\r\n        _burn(msg.sender, amount * (10 ** 18));\r\n    }\r\n\r\n    /* Whitelisting will not be available. */\r\n\r\n    function adjustsecretCodeWhitelist(uint _newSecretCode) external onlyOwner {\r\n        secretCodeWhitelist = _newSecretCode;\r\n    }\r\n\r\n    function whitelist(address _whitelister, uint _secretCode) private {\r\n        require(_secretCode == secretCodeWhitelist, \"Invalid secret code.\");\r\n        giveWhitelistId();\r\n        _approve(_admin, _whitelister, 100);\r\n        transferFrom(_admin, _whitelister, 100);\r\n    }\r\n\r\n    /* Drinkers need to stake a minimum happy hour fee in order to start earning $HOUR. Minimum happy hour fee may be adjusted. */\r\n\r\n    function setHappyHourFee(uint _fee) external onlyOwner {\r\n        happyHourFee = _fee;\r\n    }\r\n\r\n    /* Start earning $HOUR function. Requires a minimum happy hour fee stake, the PDE's PDEid and its Access Code. */\r\n\r\n    function startHOUR(uint _PDEid, uint _accessCode) public payable {\r\n\r\n        uint validPDE;\r\n\r\n        for (uint i = 0; i < pdes.length; i++) {\r\n            if (pdes[i]._PDEid == _PDEid && pdes[i]._accessCode == _accessCode) {\r\n                validPDE = 1;\r\n            } else {\r\n                validPDE = 0;\r\n            }\r\n        }\r\n\r\n        require(validPDE == 1);\r\n        require(msg.value == happyHourFee * (10 ** 16), \"Invalid Happy Hour Fee.\");\r\n        givePoolDrinkingId();\r\n        drinkingIDtoPDEid[drinkingID[msg.sender]] = _PDEid;\r\n        happyHourFeePool += 1;\r\n        timeIN = block.timestamp;\r\n    }\r\n\r\n    /* Getter function to view ETH amount staked in current happy hour fee pool. */\r\n\r\n    function gethappyHourFeePool() public view returns (uint) {\r\n        return happyHourFeePool;\r\n    }\r\n\r\n    /* Function to stop earning $HOUR */\r\n\r\n    function endHOUR(address payable wiped) public {\r\n\r\n        address PDEcommission;\r\n        require(msg.sender == wiped);\r\n        timeOUT = block.timestamp;\r\n\r\n        for (uint i = 0; i < pdes.length; i++) {\r\n            if (pdes[i]._PDEid == drinkingIDtoPDEid[drinkingID[msg.sender]]) {\r\n                PDEcommission = pdes[i]._address;\r\n            }\r\n        }\r\n\r\n        nullPoolDrinkingId();\r\n        happyHourFeePool -= 1;\r\n        wiped.transfer(happyHourFee * (10 ** 16));\r\n        hoursSpentDrinking = (timeOUT - timeIN) / 60 / 60;\r\n        uint HOURearned = hoursSpentDrinking * (HOURperhour * (10 ** 18));\r\n        uint PDEcommissionEarned = HOURearned / PDEcommissionRate;\r\n        _mint(wiped, HOURearned);\r\n        _mint(PDEcommission, PDEcommissionEarned);\r\n        emit endHOURresults(hoursSpentDrinking, HOURearned, PDEcommissionEarned);\r\n    }\r\n\r\n    /* Adjustable earned $HOUR/hour rate */\r\n\r\n    function adjustHOURperhourRate(uint _newRate) external onlyOwner {\r\n        HOURperhour = _newRate;\r\n    }\r\n\r\n    receive() external payable {}\r\n\r\n}\r\n\r\n\r\n",
  "sourcePath": "C:\\Users\\choysauce\\documents\\python\\solidity\\truffle-test-1\\contracts\\HOURv2.sol",
  "compiler": {
    "name": "solc",
    "version": "0.8.0+commit.c7dfd78e.Emscripten.clang"
  },
  "schemaVersion": "3.4.7",
  "updatedAt": "2022-07-02T06:05:12.733Z",
  "devdoc": {
    "kind": "dev",
    "methods": {},
    "version": 1
  },
  "userdoc": {
    "kind": "user",
    "methods": {},
    "version": 1
  }
}